{"contracts/Relayer.sol":{"Relayer":{"abi":[{"inputs":[],"stateMutability":"nonpayable","type":"constructor"},{"anonymous":false,"inputs":[{"indexed":true,"internalType":"address","name":"sender","type":"address"},{"indexed":false,"internalType":"uint256","name":"value","type":"uint256"}],"name":"Received","type":"event"},{"anonymous":false,"inputs":[{"indexed":false,"internalType":"uint256","name":"id","type":"uint256"},{"indexed":false,"internalType":"bytes32","name":"root","type":"bytes32"}],"name":"RootAdded","type":"event"},{"anonymous":false,"inputs":[{"indexed":true,"internalType":"address","name":"from","type":"address"},{"indexed":true,"internalType":"address","name":"to","type":"address"},{"indexed":false,"internalType":"uint256","name":"amount","type":"uint256"}],"name":"Transfer","type":"event"},{"inputs":[{"internalType":"bytes32","name":"_root","type":"bytes32"}],"name":"addRoot","outputs":[],"stateMutability":"nonpayable","type":"function"},{"inputs":[{"internalType":"address","name":"","type":"address"}],"name":"balanceOf","outputs":[{"internalType":"uint256","name":"","type":"uint256"}],"stateMutability":"view","type":"function"},{"inputs":[],"name":"deposit","outputs":[],"stateMutability":"payable","type":"function"},{"inputs":[{"internalType":"uint256","name":"id","type":"uint256"}],"name":"getRoot","outputs":[{"internalType":"bytes32","name":"","type":"bytes32"}],"stateMutability":"view","type":"function"},{"inputs":[],"name":"owner","outputs":[{"internalType":"address","name":"","type":"address"}],"stateMutability":"view","type":"function"},{"inputs":[],"name":"totalSupply","outputs":[{"internalType":"uint256","name":"","type":"uint256"}],"stateMutability":"view","type":"function"},{"inputs":[{"internalType":"address payable","name":"to","type":"address"},{"internalType":"bytes32","name":"_root","type":"bytes32"},{"internalType":"uint256","name":"_amount","type":"uint256"}],"name":"verifiedTransfer","outputs":[{"internalType":"bool","name":"success","type":"bool"}],"stateMutability":"nonpayable","type":"function"},{"inputs":[{"internalType":"uint256","name":"_shares","type":"uint256"}],"name":"withdraw","outputs":[],"stateMutability":"nonpayable","type":"function"},{"stateMutability":"payable","type":"receive"}],"evm":{"bytecode":{"linkReferences":{},"object":"6080604052600060025534801561001557600080fd5b50336000806101000a81548173ffffffffffffffffffffffffffffffffffffffff021916908373ffffffffffffffffffffffffffffffffffffffff1602179055506114f8806100656000396000f3fe60806040526004361061007f5760003560e01c80639b24b3b01161004e5780639b24b3b014610195578063b987faae146101d2578063d0e30db01461020f578063d59e646114610219576100d4565b806318160ddd146100d95780632e1a7d4d1461010457806370a082311461012d5780638da5cb5b1461016a576100d4565b366100d4573373ffffffffffffffffffffffffffffffffffffffff167f88a5966d370b9919b20f3e2c13ff65706f196a4e32cc2c12bf57088f88525874346040516100ca9190610b1a565b60405180910390a2005b600080fd5b3480156100e557600080fd5b506100ee610242565b6040516100fb9190610b1a565b60405180910390f35b34801561011057600080fd5b5061012b60048036038101906101269190610b66565b610248565b005b34801561013957600080fd5b50610154600480360381019061014f9190610bf1565b610369565b6040516101619190610b1a565b60405180910390f35b34801561017657600080fd5b5061017f610381565b60405161018c9190610c2d565b60405180910390f35b3480156101a157600080fd5b506101bc60048036038101906101b79190610b66565b6103a5565b6040516101c99190610c61565b60405180910390f35b3480156101de57600080fd5b506101f960048036038101906101f49190610ce6565b610412565b6040516102069190610d54565b60405180910390f35b61021761050d565b005b34801561022557600080fd5b50610240600480360381019061023b9190610d6f565b610582565b005b60035481565b6000600354476102589190610dfa565b9050600081836102689190610e2b565b9050804710156102ad576040517f08c379a00000000000000000000000000000000000000000000000000000000081526004016102a490610ef0565b60405180910390fd5b6102b73384610680565b60003373ffffffffffffffffffffffffffffffffffffffff16826040516102dd90610f41565b60006040518083038185875af1925050503d806000811461031a576040519150601f19603f3d011682016040523d82523d6000602084013e61031f565b606091505b5050905080610363576040517f08c379a000000000000000000000000000000000000000000000000000000000815260040161035a90610fa2565b60405180910390fd5b50505050565b60046020528060005260406000206000915090505481565b60008054906101000a900473ffffffffffffffffffffffffffffffffffffffff1681565b600080821180156103b857506002548211155b6103f7576040517f08c379a00000000000000000000000000000000000000000000000000000000081526004016103ee9061100e565b60405180910390fd5b60056000838152602001908152602001600020549050919050565b60008060009054906101000a900473ffffffffffffffffffffffffffffffffffffffff1673ffffffffffffffffffffffffffffffffffffffff163373ffffffffffffffffffffffffffffffffffffffff16146104a3576040517f08c379a000000000000000000000000000000000000000000000000000000000815260040161049a906110a0565b60405180910390fd5b600060025490506104b3816103a5565b84036104cb576104c385846106f3565b915050610506565b6040517f08c379a00000000000000000000000000000000000000000000000000000000081526004016104fd9061110c565b60405180910390fd5b9392505050565b600034905061051c3382610a8e565b6001339080600181540180825580915050600190039060005260206000200160009091909190916101000a81548173ffffffffffffffffffffffffffffffffffffffff021916908373ffffffffffffffffffffffffffffffffffffffff16021790555050565b60008054906101000a900473ffffffffffffffffffffffffffffffffffffffff1673ffffffffffffffffffffffffffffffffffffffff163373ffffffffffffffffffffffffffffffffffffffff1614610610576040517f08c379a0000000000000000000000000000000000000000000000000000000008152600401610607906110a0565b60405180910390fd5b600260008154809291906106239061112c565b919050555080600560006002548152602001908152602001600020819055507f47e13ec4cc37e31e3a4f25115640068ffbe4bee53b32f0953fa593388e69fc0f60025482604051610675929190611174565b60405180910390a150565b8060036000828254610692919061119d565b9250508190555080600460008473ffffffffffffffffffffffffffffffffffffffff1673ffffffffffffffffffffffffffffffffffffffff16815260200190815260200160002060008282546106e8919061119d565b925050819055505050565b60008073ffffffffffffffffffffffffffffffffffffffff168373ffffffffffffffffffffffffffffffffffffffff1603610763576040517f08c379a000000000000000000000000000000000000000000000000000000000815260040161075a90611243565b60405180910390fd5b600082116107a6576040517f08c379a000000000000000000000000000000000000000000000000000000000815260040161079d906112d5565b60405180910390fd5b814710156107e9576040517f08c379a00000000000000000000000000000000000000000000000000000000081526004016107e090611341565b60405180910390fd5b600060018054905011610831576040517f08c379a0000000000000000000000000000000000000000000000000000000008152600401610828906113ad565b60405180910390fd5b6000600180549050905060005b818110156109505760006001828154811061085c5761085b6113cd565b5b9060005260206000200160009054906101000a900473ffffffffffffffffffffffffffffffffffffffff1690506000600354600460008473ffffffffffffffffffffffffffffffffffffffff1673ffffffffffffffffffffffffffffffffffffffff16815260200190815260200160002054876108d99190610e2b565b6108e39190610dfa565b905080600460008473ffffffffffffffffffffffffffffffffffffffff1673ffffffffffffffffffffffffffffffffffffffff1681526020019081526020016000206000828254610934919061119d565b92505081905550505080806109489061112c565b91505061083e565b5060008473ffffffffffffffffffffffffffffffffffffffff168460405161097790610f41565b60006040518083038185875af1925050503d80600081146109b4576040519150601f19603f3d011682016040523d82523d6000602084013e6109b9565b606091505b50509050806109fd576040517f08c379a00000000000000000000000000000000000000000000000000000000081526004016109f49061146e565b60405180910390fd5b8473ffffffffffffffffffffffffffffffffffffffff1660008054906101000a900473ffffffffffffffffffffffffffffffffffffffff1673ffffffffffffffffffffffffffffffffffffffff167fddf252ad1be2c89b69c2b068fc378daa952ba7f163c4a11628f55a4df523b3ef86604051610a7a9190610b1a565b60405180910390a360019250505092915050565b8060036000828254610aa0919061148e565b9250508190555080600460008473ffffffffffffffffffffffffffffffffffffffff1673ffffffffffffffffffffffffffffffffffffffff1681526020019081526020016000206000828254610af6919061148e565b925050819055505050565b6000819050919050565b610b1481610b01565b82525050565b6000602082019050610b2f6000830184610b0b565b92915050565b600080fd5b610b4381610b01565b8114610b4e57600080fd5b50565b600081359050610b6081610b3a565b92915050565b600060208284031215610b7c57610b7b610b35565b5b6000610b8a84828501610b51565b91505092915050565b600073ffffffffffffffffffffffffffffffffffffffff82169050919050565b6000610bbe82610b93565b9050919050565b610bce81610bb3565b8114610bd957600080fd5b50565b600081359050610beb81610bc5565b92915050565b600060208284031215610c0757610c06610b35565b5b6000610c1584828501610bdc565b91505092915050565b610c2781610bb3565b82525050565b6000602082019050610c426000830184610c1e565b92915050565b6000819050919050565b610c5b81610c48565b82525050565b6000602082019050610c766000830184610c52565b92915050565b6000610c8782610b93565b9050919050565b610c9781610c7c565b8114610ca257600080fd5b50565b600081359050610cb481610c8e565b92915050565b610cc381610c48565b8114610cce57600080fd5b50565b600081359050610ce081610cba565b92915050565b600080600060608486031215610cff57610cfe610b35565b5b6000610d0d86828701610ca5565b9350506020610d1e86828701610cd1565b9250506040610d2f86828701610b51565b9150509250925092565b60008115159050919050565b610d4e81610d39565b82525050565b6000602082019050610d696000830184610d45565b92915050565b600060208284031215610d8557610d84610b35565b5b6000610d9384828501610cd1565b91505092915050565b7f4e487b7100000000000000000000000000000000000000000000000000000000600052601260045260246000fd5b7f4e487b7100000000000000000000000000000000000000000000000000000000600052601160045260246000fd5b6000610e0582610b01565b9150610e1083610b01565b925082610e2057610e1f610d9c565b5b828204905092915050565b6000610e3682610b01565b9150610e4183610b01565b9250828202610e4f81610b01565b91508282048414831517610e6657610e65610dcb565b5b5092915050565b600082825260208201905092915050565b7f4e6f7420656e6f7567682062616c616e636520696e2074686520636f6e74726160008201527f6374000000000000000000000000000000000000000000000000000000000000602082015250565b6000610eda602283610e6d565b9150610ee582610e7e565b604082019050919050565b60006020820190508181036000830152610f0981610ecd565b9050919050565b600081905092915050565b50565b6000610f2b600083610f10565b9150610f3682610f1b565b600082019050919050565b6000610f4c82610f1e565b9150819050919050565b7f455448207472616e73666572206661696c656400000000000000000000000000600082015250565b6000610f8c601383610e6d565b9150610f9782610f56565b602082019050919050565b60006020820190508181036000830152610fbb81610f7f565b9050919050565b7f496e76616c696420726f6f742049440000000000000000000000000000000000600082015250565b6000610ff8600f83610e6d565b915061100382610fc2565b602082019050919050565b6000602082019050818103600083015261102781610feb565b9050919050565b7f4f6e6c792074686520636f6e7472616374206f776e65722063616e2063616c6c60008201527f20746869732066756e6374696f6e000000000000000000000000000000000000602082015250565b600061108a602e83610e6d565b91506110958261102e565b604082019050919050565b600060208201905081810360008301526110b98161107d565b9050919050565b7f4572726f723a20496e76616c6964207369676e6572732e000000000000000000600082015250565b60006110f6601783610e6d565b9150611101826110c0565b602082019050919050565b60006020820190508181036000830152611125816110e9565b9050919050565b600061113782610b01565b91507fffffffffffffffffffffffffffffffffffffffffffffffffffffffffffffffff820361116957611168610dcb565b5b600182019050919050565b60006040820190506111896000830185610b0b565b6111966020830184610c52565b9392505050565b60006111a882610b01565b91506111b383610b01565b92508282039050818111156111cb576111ca610dcb565b5b92915050565b7f4572726f723a2022746f222061646472657373206d757374206e6f742062652060008201527f302e000000000000000000000000000000000000000000000000000000000000602082015250565b600061122d602283610e6d565b9150611238826111d1565b604082019050919050565b6000602082019050818103600083015261125c81611220565b9050919050565b7f4572726f723a2076616c7565206d75737420626520677265617465722074686160008201527f6e20302e00000000000000000000000000000000000000000000000000000000602082015250565b60006112bf602483610e6d565b91506112ca82611263565b604082019050919050565b600060208201905081810360008301526112ee816112b2565b9050919050565b7f4572726f723a206e6f7420656e6f7567682062616c616e63652e000000000000600082015250565b600061132b601a83610e6d565b9150611336826112f5565b602082019050919050565b6000602082019050818103600083015261135a8161131e565b9050919050565b7f4e6f206465706f7369746f727320746f207472616e736665722045544820746f600082015250565b6000611397602083610e6d565b91506113a282611361565b602082019050919050565b600060208201905081810360008301526113c68161138a565b9050919050565b7f4e487b7100000000000000000000000000000000000000000000000000000000600052603260045260246000fd5b7f5472616e7366657220746f2074686520726563697069656e742061646472657360008201527f73206661696c6564000000000000000000000000000000000000000000000000602082015250565b6000611458602883610e6d565b9150611463826113fc565b604082019050919050565b600060208201905081810360008301526114878161144b565b9050919050565b600061149982610b01565b91506114a483610b01565b92508282019050808211156114bc576114bb610dcb565b5b9291505056fea26469706673582212202b69ebab2d5dd466cf9b915784b020f1f0dc4a9ed689319906fd98da88c3047764736f6c63430008140033","opcodes":"PUSH1 0x80 PUSH1 0x40 MSTORE PUSH1 0x0 PUSH1 0x2 SSTORE CALLVALUE DUP1 ISZERO PUSH2 0x15 JUMPI PUSH1 0x0 DUP1 REVERT JUMPDEST POP CALLER PUSH1 0x0 DUP1 PUSH2 0x100 EXP DUP2 SLOAD DUP2 PUSH20 0xFFFFFFFFFFFFFFFFFFFFFFFFFFFFFFFFFFFFFFFF MUL NOT AND SWAP1 DUP4 PUSH20 0xFFFFFFFFFFFFFFFFFFFFFFFFFFFFFFFFFFFFFFFF AND MUL OR SWAP1 SSTORE POP PUSH2 0x14F8 DUP1 PUSH2 0x65 PUSH1 0x0 CODECOPY PUSH1 0x0 RETURN INVALID PUSH1 0x80 PUSH1 0x40 MSTORE PUSH1 0x4 CALLDATASIZE LT PUSH2 0x7F JUMPI PUSH1 0x0 CALLDATALOAD PUSH1 0xE0 SHR DUP1 PUSH4 0x9B24B3B0 GT PUSH2 0x4E JUMPI DUP1 PUSH4 0x9B24B3B0 EQ PUSH2 0x195 JUMPI DUP1 PUSH4 0xB987FAAE EQ PUSH2 0x1D2 JUMPI DUP1 PUSH4 0xD0E30DB0 EQ PUSH2 0x20F JUMPI DUP1 PUSH4 0xD59E6461 EQ PUSH2 0x219 JUMPI PUSH2 0xD4 JUMP JUMPDEST DUP1 PUSH4 0x18160DDD EQ PUSH2 0xD9 JUMPI DUP1 PUSH4 0x2E1A7D4D EQ PUSH2 0x104 JUMPI DUP1 PUSH4 0x70A08231 EQ PUSH2 0x12D JUMPI DUP1 PUSH4 0x8DA5CB5B EQ PUSH2 0x16A JUMPI PUSH2 0xD4 JUMP JUMPDEST CALLDATASIZE PUSH2 0xD4 JUMPI CALLER PUSH20 0xFFFFFFFFFFFFFFFFFFFFFFFFFFFFFFFFFFFFFFFF AND PUSH32 0x88A5966D370B9919B20F3E2C13FF65706F196A4E32CC2C12BF57088F88525874 CALLVALUE PUSH1 0x40 MLOAD PUSH2 0xCA SWAP2 SWAP1 PUSH2 0xB1A JUMP JUMPDEST PUSH1 0x40 MLOAD DUP1 SWAP2 SUB SWAP1 LOG2 STOP JUMPDEST PUSH1 0x0 DUP1 REVERT JUMPDEST CALLVALUE DUP1 ISZERO PUSH2 0xE5 JUMPI PUSH1 0x0 DUP1 REVERT JUMPDEST POP PUSH2 0xEE PUSH2 0x242 JUMP JUMPDEST PUSH1 0x40 MLOAD PUSH2 0xFB SWAP2 SWAP1 PUSH2 0xB1A JUMP JUMPDEST PUSH1 0x40 MLOAD DUP1 SWAP2 SUB SWAP1 RETURN JUMPDEST CALLVALUE DUP1 ISZERO PUSH2 0x110 JUMPI PUSH1 0x0 DUP1 REVERT JUMPDEST POP PUSH2 0x12B PUSH1 0x4 DUP1 CALLDATASIZE SUB DUP2 ADD SWAP1 PUSH2 0x126 SWAP2 SWAP1 PUSH2 0xB66 JUMP JUMPDEST PUSH2 0x248 JUMP JUMPDEST STOP JUMPDEST CALLVALUE DUP1 ISZERO PUSH2 0x139 JUMPI PUSH1 0x0 DUP1 REVERT JUMPDEST POP PUSH2 0x154 PUSH1 0x4 DUP1 CALLDATASIZE SUB DUP2 ADD SWAP1 PUSH2 0x14F SWAP2 SWAP1 PUSH2 0xBF1 JUMP JUMPDEST PUSH2 0x369 JUMP JUMPDEST PUSH1 0x40 MLOAD PUSH2 0x161 SWAP2 SWAP1 PUSH2 0xB1A JUMP JUMPDEST PUSH1 0x40 MLOAD DUP1 SWAP2 SUB SWAP1 RETURN JUMPDEST CALLVALUE DUP1 ISZERO PUSH2 0x176 JUMPI PUSH1 0x0 DUP1 REVERT JUMPDEST POP PUSH2 0x17F PUSH2 0x381 JUMP JUMPDEST PUSH1 0x40 MLOAD PUSH2 0x18C SWAP2 SWAP1 PUSH2 0xC2D JUMP JUMPDEST PUSH1 0x40 MLOAD DUP1 SWAP2 SUB SWAP1 RETURN JUMPDEST CALLVALUE DUP1 ISZERO PUSH2 0x1A1 JUMPI PUSH1 0x0 DUP1 REVERT JUMPDEST POP PUSH2 0x1BC PUSH1 0x4 DUP1 CALLDATASIZE SUB DUP2 ADD SWAP1 PUSH2 0x1B7 SWAP2 SWAP1 PUSH2 0xB66 JUMP JUMPDEST PUSH2 0x3A5 JUMP JUMPDEST PUSH1 0x40 MLOAD PUSH2 0x1C9 SWAP2 SWAP1 PUSH2 0xC61 JUMP JUMPDEST PUSH1 0x40 MLOAD DUP1 SWAP2 SUB SWAP1 RETURN JUMPDEST CALLVALUE DUP1 ISZERO PUSH2 0x1DE JUMPI PUSH1 0x0 DUP1 REVERT JUMPDEST POP PUSH2 0x1F9 PUSH1 0x4 DUP1 CALLDATASIZE SUB DUP2 ADD SWAP1 PUSH2 0x1F4 SWAP2 SWAP1 PUSH2 0xCE6 JUMP JUMPDEST PUSH2 0x412 JUMP JUMPDEST PUSH1 0x40 MLOAD PUSH2 0x206 SWAP2 SWAP1 PUSH2 0xD54 JUMP JUMPDEST PUSH1 0x40 MLOAD DUP1 SWAP2 SUB SWAP1 RETURN JUMPDEST PUSH2 0x217 PUSH2 0x50D JUMP JUMPDEST STOP JUMPDEST CALLVALUE DUP1 ISZERO PUSH2 0x225 JUMPI PUSH1 0x0 DUP1 REVERT JUMPDEST POP PUSH2 0x240 PUSH1 0x4 DUP1 CALLDATASIZE SUB DUP2 ADD SWAP1 PUSH2 0x23B SWAP2 SWAP1 PUSH2 0xD6F JUMP JUMPDEST PUSH2 0x582 JUMP JUMPDEST STOP JUMPDEST PUSH1 0x3 SLOAD DUP2 JUMP JUMPDEST PUSH1 0x0 PUSH1 0x3 SLOAD SELFBALANCE PUSH2 0x258 SWAP2 SWAP1 PUSH2 0xDFA JUMP JUMPDEST SWAP1 POP PUSH1 0x0 DUP2 DUP4 PUSH2 0x268 SWAP2 SWAP1 PUSH2 0xE2B JUMP JUMPDEST SWAP1 POP DUP1 SELFBALANCE LT ISZERO PUSH2 0x2AD JUMPI PUSH1 0x40 MLOAD PUSH32 0x8C379A000000000000000000000000000000000000000000000000000000000 DUP2 MSTORE PUSH1 0x4 ADD PUSH2 0x2A4 SWAP1 PUSH2 0xEF0 JUMP JUMPDEST PUSH1 0x40 MLOAD DUP1 SWAP2 SUB SWAP1 REVERT JUMPDEST PUSH2 0x2B7 CALLER DUP5 PUSH2 0x680 JUMP JUMPDEST PUSH1 0x0 CALLER PUSH20 0xFFFFFFFFFFFFFFFFFFFFFFFFFFFFFFFFFFFFFFFF AND DUP3 PUSH1 0x40 MLOAD PUSH2 0x2DD SWAP1 PUSH2 0xF41 JUMP JUMPDEST PUSH1 0x0 PUSH1 0x40 MLOAD DUP1 DUP4 SUB DUP2 DUP6 DUP8 GAS CALL SWAP3 POP POP POP RETURNDATASIZE DUP1 PUSH1 0x0 DUP2 EQ PUSH2 0x31A JUMPI PUSH1 0x40 MLOAD SWAP2 POP PUSH1 0x1F NOT PUSH1 0x3F RETURNDATASIZE ADD AND DUP3 ADD PUSH1 0x40 MSTORE RETURNDATASIZE DUP3 MSTORE RETURNDATASIZE PUSH1 0x0 PUSH1 0x20 DUP5 ADD RETURNDATACOPY PUSH2 0x31F JUMP JUMPDEST PUSH1 0x60 SWAP2 POP JUMPDEST POP POP SWAP1 POP DUP1 PUSH2 0x363 JUMPI PUSH1 0x40 MLOAD PUSH32 0x8C379A000000000000000000000000000000000000000000000000000000000 DUP2 MSTORE PUSH1 0x4 ADD PUSH2 0x35A SWAP1 PUSH2 0xFA2 JUMP JUMPDEST PUSH1 0x40 MLOAD DUP1 SWAP2 SUB SWAP1 REVERT JUMPDEST POP POP POP POP JUMP JUMPDEST PUSH1 0x4 PUSH1 0x20 MSTORE DUP1 PUSH1 0x0 MSTORE PUSH1 0x40 PUSH1 0x0 KECCAK256 PUSH1 0x0 SWAP2 POP SWAP1 POP SLOAD DUP2 JUMP JUMPDEST PUSH1 0x0 DUP1 SLOAD SWAP1 PUSH2 0x100 EXP SWAP1 DIV PUSH20 0xFFFFFFFFFFFFFFFFFFFFFFFFFFFFFFFFFFFFFFFF AND DUP2 JUMP JUMPDEST PUSH1 0x0 DUP1 DUP3 GT DUP1 ISZERO PUSH2 0x3B8 JUMPI POP PUSH1 0x2 SLOAD DUP3 GT ISZERO JUMPDEST PUSH2 0x3F7 JUMPI PUSH1 0x40 MLOAD PUSH32 0x8C379A000000000000000000000000000000000000000000000000000000000 DUP2 MSTORE PUSH1 0x4 ADD PUSH2 0x3EE SWAP1 PUSH2 0x100E JUMP JUMPDEST PUSH1 0x40 MLOAD DUP1 SWAP2 SUB SWAP1 REVERT JUMPDEST PUSH1 0x5 PUSH1 0x0 DUP4 DUP2 MSTORE PUSH1 0x20 ADD SWAP1 DUP2 MSTORE PUSH1 0x20 ADD PUSH1 0x0 KECCAK256 SLOAD SWAP1 POP SWAP2 SWAP1 POP JUMP JUMPDEST PUSH1 0x0 DUP1 PUSH1 0x0 SWAP1 SLOAD SWAP1 PUSH2 0x100 EXP SWAP1 DIV PUSH20 0xFFFFFFFFFFFFFFFFFFFFFFFFFFFFFFFFFFFFFFFF AND PUSH20 0xFFFFFFFFFFFFFFFFFFFFFFFFFFFFFFFFFFFFFFFF AND CALLER PUSH20 0xFFFFFFFFFFFFFFFFFFFFFFFFFFFFFFFFFFFFFFFF AND EQ PUSH2 0x4A3 JUMPI PUSH1 0x40 MLOAD PUSH32 0x8C379A000000000000000000000000000000000000000000000000000000000 DUP2 MSTORE PUSH1 0x4 ADD PUSH2 0x49A SWAP1 PUSH2 0x10A0 JUMP JUMPDEST PUSH1 0x40 MLOAD DUP1 SWAP2 SUB SWAP1 REVERT JUMPDEST PUSH1 0x0 PUSH1 0x2 SLOAD SWAP1 POP PUSH2 0x4B3 DUP2 PUSH2 0x3A5 JUMP JUMPDEST DUP5 SUB PUSH2 0x4CB JUMPI PUSH2 0x4C3 DUP6 DUP5 PUSH2 0x6F3 JUMP JUMPDEST SWAP2 POP POP PUSH2 0x506 JUMP JUMPDEST PUSH1 0x40 MLOAD PUSH32 0x8C379A000000000000000000000000000000000000000000000000000000000 DUP2 MSTORE PUSH1 0x4 ADD PUSH2 0x4FD SWAP1 PUSH2 0x110C JUMP JUMPDEST PUSH1 0x40 MLOAD DUP1 SWAP2 SUB SWAP1 REVERT JUMPDEST SWAP4 SWAP3 POP POP POP JUMP JUMPDEST PUSH1 0x0 CALLVALUE SWAP1 POP PUSH2 0x51C CALLER DUP3 PUSH2 0xA8E JUMP JUMPDEST PUSH1 0x1 CALLER SWAP1 DUP1 PUSH1 0x1 DUP2 SLOAD ADD DUP1 DUP3 SSTORE DUP1 SWAP2 POP POP PUSH1 0x1 SWAP1 SUB SWAP1 PUSH1 0x0 MSTORE PUSH1 0x20 PUSH1 0x0 KECCAK256 ADD PUSH1 0x0 SWAP1 SWAP2 SWAP1 SWAP2 SWAP1 SWAP2 PUSH2 0x100 EXP DUP2 SLOAD DUP2 PUSH20 0xFFFFFFFFFFFFFFFFFFFFFFFFFFFFFFFFFFFFFFFF MUL NOT AND SWAP1 DUP4 PUSH20 0xFFFFFFFFFFFFFFFFFFFFFFFFFFFFFFFFFFFFFFFF AND MUL OR SWAP1 SSTORE POP POP JUMP JUMPDEST PUSH1 0x0 DUP1 SLOAD SWAP1 PUSH2 0x100 EXP SWAP1 DIV PUSH20 0xFFFFFFFFFFFFFFFFFFFFFFFFFFFFFFFFFFFFFFFF AND PUSH20 0xFFFFFFFFFFFFFFFFFFFFFFFFFFFFFFFFFFFFFFFF AND CALLER PUSH20 0xFFFFFFFFFFFFFFFFFFFFFFFFFFFFFFFFFFFFFFFF AND EQ PUSH2 0x610 JUMPI PUSH1 0x40 MLOAD PUSH32 0x8C379A000000000000000000000000000000000000000000000000000000000 DUP2 MSTORE PUSH1 0x4 ADD PUSH2 0x607 SWAP1 PUSH2 0x10A0 JUMP JUMPDEST PUSH1 0x40 MLOAD DUP1 SWAP2 SUB SWAP1 REVERT JUMPDEST PUSH1 0x2 PUSH1 0x0 DUP2 SLOAD DUP1 SWAP3 SWAP2 SWAP1 PUSH2 0x623 SWAP1 PUSH2 0x112C JUMP JUMPDEST SWAP2 SWAP1 POP SSTORE POP DUP1 PUSH1 0x5 PUSH1 0x0 PUSH1 0x2 SLOAD DUP2 MSTORE PUSH1 0x20 ADD SWAP1 DUP2 MSTORE PUSH1 0x20 ADD PUSH1 0x0 KECCAK256 DUP2 SWAP1 SSTORE POP PUSH32 0x47E13EC4CC37E31E3A4F25115640068FFBE4BEE53B32F0953FA593388E69FC0F PUSH1 0x2 SLOAD DUP3 PUSH1 0x40 MLOAD PUSH2 0x675 SWAP3 SWAP2 SWAP1 PUSH2 0x1174 JUMP JUMPDEST PUSH1 0x40 MLOAD DUP1 SWAP2 SUB SWAP1 LOG1 POP JUMP JUMPDEST DUP1 PUSH1 0x3 PUSH1 0x0 DUP3 DUP3 SLOAD PUSH2 0x692 SWAP2 SWAP1 PUSH2 0x119D JUMP JUMPDEST SWAP3 POP POP DUP2 SWAP1 SSTORE POP DUP1 PUSH1 0x4 PUSH1 0x0 DUP5 PUSH20 0xFFFFFFFFFFFFFFFFFFFFFFFFFFFFFFFFFFFFFFFF AND PUSH20 0xFFFFFFFFFFFFFFFFFFFFFFFFFFFFFFFFFFFFFFFF AND DUP2 MSTORE PUSH1 0x20 ADD SWAP1 DUP2 MSTORE PUSH1 0x20 ADD PUSH1 0x0 KECCAK256 PUSH1 0x0 DUP3 DUP3 SLOAD PUSH2 0x6E8 SWAP2 SWAP1 PUSH2 0x119D JUMP JUMPDEST SWAP3 POP POP DUP2 SWAP1 SSTORE POP POP POP JUMP JUMPDEST PUSH1 0x0 DUP1 PUSH20 0xFFFFFFFFFFFFFFFFFFFFFFFFFFFFFFFFFFFFFFFF AND DUP4 PUSH20 0xFFFFFFFFFFFFFFFFFFFFFFFFFFFFFFFFFFFFFFFF AND SUB PUSH2 0x763 JUMPI PUSH1 0x40 MLOAD PUSH32 0x8C379A000000000000000000000000000000000000000000000000000000000 DUP2 MSTORE PUSH1 0x4 ADD PUSH2 0x75A SWAP1 PUSH2 0x1243 JUMP JUMPDEST PUSH1 0x40 MLOAD DUP1 SWAP2 SUB SWAP1 REVERT JUMPDEST PUSH1 0x0 DUP3 GT PUSH2 0x7A6 JUMPI PUSH1 0x40 MLOAD PUSH32 0x8C379A000000000000000000000000000000000000000000000000000000000 DUP2 MSTORE PUSH1 0x4 ADD PUSH2 0x79D SWAP1 PUSH2 0x12D5 JUMP JUMPDEST PUSH1 0x40 MLOAD DUP1 SWAP2 SUB SWAP1 REVERT JUMPDEST DUP2 SELFBALANCE LT ISZERO PUSH2 0x7E9 JUMPI PUSH1 0x40 MLOAD PUSH32 0x8C379A000000000000000000000000000000000000000000000000000000000 DUP2 MSTORE PUSH1 0x4 ADD PUSH2 0x7E0 SWAP1 PUSH2 0x1341 JUMP JUMPDEST PUSH1 0x40 MLOAD DUP1 SWAP2 SUB SWAP1 REVERT JUMPDEST PUSH1 0x0 PUSH1 0x1 DUP1 SLOAD SWAP1 POP GT PUSH2 0x831 JUMPI PUSH1 0x40 MLOAD PUSH32 0x8C379A000000000000000000000000000000000000000000000000000000000 DUP2 MSTORE PUSH1 0x4 ADD PUSH2 0x828 SWAP1 PUSH2 0x13AD JUMP JUMPDEST PUSH1 0x40 MLOAD DUP1 SWAP2 SUB SWAP1 REVERT JUMPDEST PUSH1 0x0 PUSH1 0x1 DUP1 SLOAD SWAP1 POP SWAP1 POP PUSH1 0x0 JUMPDEST DUP2 DUP2 LT ISZERO PUSH2 0x950 JUMPI PUSH1 0x0 PUSH1 0x1 DUP3 DUP2 SLOAD DUP2 LT PUSH2 0x85C JUMPI PUSH2 0x85B PUSH2 0x13CD JUMP JUMPDEST JUMPDEST SWAP1 PUSH1 0x0 MSTORE PUSH1 0x20 PUSH1 0x0 KECCAK256 ADD PUSH1 0x0 SWAP1 SLOAD SWAP1 PUSH2 0x100 EXP SWAP1 DIV PUSH20 0xFFFFFFFFFFFFFFFFFFFFFFFFFFFFFFFFFFFFFFFF AND SWAP1 POP PUSH1 0x0 PUSH1 0x3 SLOAD PUSH1 0x4 PUSH1 0x0 DUP5 PUSH20 0xFFFFFFFFFFFFFFFFFFFFFFFFFFFFFFFFFFFFFFFF AND PUSH20 0xFFFFFFFFFFFFFFFFFFFFFFFFFFFFFFFFFFFFFFFF AND DUP2 MSTORE PUSH1 0x20 ADD SWAP1 DUP2 MSTORE PUSH1 0x20 ADD PUSH1 0x0 KECCAK256 SLOAD DUP8 PUSH2 0x8D9 SWAP2 SWAP1 PUSH2 0xE2B JUMP JUMPDEST PUSH2 0x8E3 SWAP2 SWAP1 PUSH2 0xDFA JUMP JUMPDEST SWAP1 POP DUP1 PUSH1 0x4 PUSH1 0x0 DUP5 PUSH20 0xFFFFFFFFFFFFFFFFFFFFFFFFFFFFFFFFFFFFFFFF AND PUSH20 0xFFFFFFFFFFFFFFFFFFFFFFFFFFFFFFFFFFFFFFFF AND DUP2 MSTORE PUSH1 0x20 ADD SWAP1 DUP2 MSTORE PUSH1 0x20 ADD PUSH1 0x0 KECCAK256 PUSH1 0x0 DUP3 DUP3 SLOAD PUSH2 0x934 SWAP2 SWAP1 PUSH2 0x119D JUMP JUMPDEST SWAP3 POP POP DUP2 SWAP1 SSTORE POP POP POP DUP1 DUP1 PUSH2 0x948 SWAP1 PUSH2 0x112C JUMP JUMPDEST SWAP2 POP POP PUSH2 0x83E JUMP JUMPDEST POP PUSH1 0x0 DUP5 PUSH20 0xFFFFFFFFFFFFFFFFFFFFFFFFFFFFFFFFFFFFFFFF AND DUP5 PUSH1 0x40 MLOAD PUSH2 0x977 SWAP1 PUSH2 0xF41 JUMP JUMPDEST PUSH1 0x0 PUSH1 0x40 MLOAD DUP1 DUP4 SUB DUP2 DUP6 DUP8 GAS CALL SWAP3 POP POP POP RETURNDATASIZE DUP1 PUSH1 0x0 DUP2 EQ PUSH2 0x9B4 JUMPI PUSH1 0x40 MLOAD SWAP2 POP PUSH1 0x1F NOT PUSH1 0x3F RETURNDATASIZE ADD AND DUP3 ADD PUSH1 0x40 MSTORE RETURNDATASIZE DUP3 MSTORE RETURNDATASIZE PUSH1 0x0 PUSH1 0x20 DUP5 ADD RETURNDATACOPY PUSH2 0x9B9 JUMP JUMPDEST PUSH1 0x60 SWAP2 POP JUMPDEST POP POP SWAP1 POP DUP1 PUSH2 0x9FD JUMPI PUSH1 0x40 MLOAD PUSH32 0x8C379A000000000000000000000000000000000000000000000000000000000 DUP2 MSTORE PUSH1 0x4 ADD PUSH2 0x9F4 SWAP1 PUSH2 0x146E JUMP JUMPDEST PUSH1 0x40 MLOAD DUP1 SWAP2 SUB SWAP1 REVERT JUMPDEST DUP5 PUSH20 0xFFFFFFFFFFFFFFFFFFFFFFFFFFFFFFFFFFFFFFFF AND PUSH1 0x0 DUP1 SLOAD SWAP1 PUSH2 0x100 EXP SWAP1 DIV PUSH20 0xFFFFFFFFFFFFFFFFFFFFFFFFFFFFFFFFFFFFFFFF AND PUSH20 0xFFFFFFFFFFFFFFFFFFFFFFFFFFFFFFFFFFFFFFFF AND PUSH32 0xDDF252AD1BE2C89B69C2B068FC378DAA952BA7F163C4A11628F55A4DF523B3EF DUP7 PUSH1 0x40 MLOAD PUSH2 0xA7A SWAP2 SWAP1 PUSH2 0xB1A JUMP JUMPDEST PUSH1 0x40 MLOAD DUP1 SWAP2 SUB SWAP1 LOG3 PUSH1 0x1 SWAP3 POP POP POP SWAP3 SWAP2 POP POP JUMP JUMPDEST DUP1 PUSH1 0x3 PUSH1 0x0 DUP3 DUP3 SLOAD PUSH2 0xAA0 SWAP2 SWAP1 PUSH2 0x148E JUMP JUMPDEST SWAP3 POP POP DUP2 SWAP1 SSTORE POP DUP1 PUSH1 0x4 PUSH1 0x0 DUP5 PUSH20 0xFFFFFFFFFFFFFFFFFFFFFFFFFFFFFFFFFFFFFFFF AND PUSH20 0xFFFFFFFFFFFFFFFFFFFFFFFFFFFFFFFFFFFFFFFF AND DUP2 MSTORE PUSH1 0x20 ADD SWAP1 DUP2 MSTORE PUSH1 0x20 ADD PUSH1 0x0 KECCAK256 PUSH1 0x0 DUP3 DUP3 SLOAD PUSH2 0xAF6 SWAP2 SWAP1 PUSH2 0x148E JUMP JUMPDEST SWAP3 POP POP DUP2 SWAP1 SSTORE POP POP POP JUMP JUMPDEST PUSH1 0x0 DUP2 SWAP1 POP SWAP2 SWAP1 POP JUMP JUMPDEST PUSH2 0xB14 DUP2 PUSH2 0xB01 JUMP JUMPDEST DUP3 MSTORE POP POP JUMP JUMPDEST PUSH1 0x0 PUSH1 0x20 DUP3 ADD SWAP1 POP PUSH2 0xB2F PUSH1 0x0 DUP4 ADD DUP5 PUSH2 0xB0B JUMP JUMPDEST SWAP3 SWAP2 POP POP JUMP JUMPDEST PUSH1 0x0 DUP1 REVERT JUMPDEST PUSH2 0xB43 DUP2 PUSH2 0xB01 JUMP JUMPDEST DUP2 EQ PUSH2 0xB4E JUMPI PUSH1 0x0 DUP1 REVERT JUMPDEST POP JUMP JUMPDEST PUSH1 0x0 DUP2 CALLDATALOAD SWAP1 POP PUSH2 0xB60 DUP2 PUSH2 0xB3A JUMP JUMPDEST SWAP3 SWAP2 POP POP JUMP JUMPDEST PUSH1 0x0 PUSH1 0x20 DUP3 DUP5 SUB SLT ISZERO PUSH2 0xB7C JUMPI PUSH2 0xB7B PUSH2 0xB35 JUMP JUMPDEST JUMPDEST PUSH1 0x0 PUSH2 0xB8A DUP5 DUP3 DUP6 ADD PUSH2 0xB51 JUMP JUMPDEST SWAP2 POP POP SWAP3 SWAP2 POP POP JUMP JUMPDEST PUSH1 0x0 PUSH20 0xFFFFFFFFFFFFFFFFFFFFFFFFFFFFFFFFFFFFFFFF DUP3 AND SWAP1 POP SWAP2 SWAP1 POP JUMP JUMPDEST PUSH1 0x0 PUSH2 0xBBE DUP3 PUSH2 0xB93 JUMP JUMPDEST SWAP1 POP SWAP2 SWAP1 POP JUMP JUMPDEST PUSH2 0xBCE DUP2 PUSH2 0xBB3 JUMP JUMPDEST DUP2 EQ PUSH2 0xBD9 JUMPI PUSH1 0x0 DUP1 REVERT JUMPDEST POP JUMP JUMPDEST PUSH1 0x0 DUP2 CALLDATALOAD SWAP1 POP PUSH2 0xBEB DUP2 PUSH2 0xBC5 JUMP JUMPDEST SWAP3 SWAP2 POP POP JUMP JUMPDEST PUSH1 0x0 PUSH1 0x20 DUP3 DUP5 SUB SLT ISZERO PUSH2 0xC07 JUMPI PUSH2 0xC06 PUSH2 0xB35 JUMP JUMPDEST JUMPDEST PUSH1 0x0 PUSH2 0xC15 DUP5 DUP3 DUP6 ADD PUSH2 0xBDC JUMP JUMPDEST SWAP2 POP POP SWAP3 SWAP2 POP POP JUMP JUMPDEST PUSH2 0xC27 DUP2 PUSH2 0xBB3 JUMP JUMPDEST DUP3 MSTORE POP POP JUMP JUMPDEST PUSH1 0x0 PUSH1 0x20 DUP3 ADD SWAP1 POP PUSH2 0xC42 PUSH1 0x0 DUP4 ADD DUP5 PUSH2 0xC1E JUMP JUMPDEST SWAP3 SWAP2 POP POP JUMP JUMPDEST PUSH1 0x0 DUP2 SWAP1 POP SWAP2 SWAP1 POP JUMP JUMPDEST PUSH2 0xC5B DUP2 PUSH2 0xC48 JUMP JUMPDEST DUP3 MSTORE POP POP JUMP JUMPDEST PUSH1 0x0 PUSH1 0x20 DUP3 ADD SWAP1 POP PUSH2 0xC76 PUSH1 0x0 DUP4 ADD DUP5 PUSH2 0xC52 JUMP JUMPDEST SWAP3 SWAP2 POP POP JUMP JUMPDEST PUSH1 0x0 PUSH2 0xC87 DUP3 PUSH2 0xB93 JUMP JUMPDEST SWAP1 POP SWAP2 SWAP1 POP JUMP JUMPDEST PUSH2 0xC97 DUP2 PUSH2 0xC7C JUMP JUMPDEST DUP2 EQ PUSH2 0xCA2 JUMPI PUSH1 0x0 DUP1 REVERT JUMPDEST POP JUMP JUMPDEST PUSH1 0x0 DUP2 CALLDATALOAD SWAP1 POP PUSH2 0xCB4 DUP2 PUSH2 0xC8E JUMP JUMPDEST SWAP3 SWAP2 POP POP JUMP JUMPDEST PUSH2 0xCC3 DUP2 PUSH2 0xC48 JUMP JUMPDEST DUP2 EQ PUSH2 0xCCE JUMPI PUSH1 0x0 DUP1 REVERT JUMPDEST POP JUMP JUMPDEST PUSH1 0x0 DUP2 CALLDATALOAD SWAP1 POP PUSH2 0xCE0 DUP2 PUSH2 0xCBA JUMP JUMPDEST SWAP3 SWAP2 POP POP JUMP JUMPDEST PUSH1 0x0 DUP1 PUSH1 0x0 PUSH1 0x60 DUP5 DUP7 SUB SLT ISZERO PUSH2 0xCFF JUMPI PUSH2 0xCFE PUSH2 0xB35 JUMP JUMPDEST JUMPDEST PUSH1 0x0 PUSH2 0xD0D DUP7 DUP3 DUP8 ADD PUSH2 0xCA5 JUMP JUMPDEST SWAP4 POP POP PUSH1 0x20 PUSH2 0xD1E DUP7 DUP3 DUP8 ADD PUSH2 0xCD1 JUMP JUMPDEST SWAP3 POP POP PUSH1 0x40 PUSH2 0xD2F DUP7 DUP3 DUP8 ADD PUSH2 0xB51 JUMP JUMPDEST SWAP2 POP POP SWAP3 POP SWAP3 POP SWAP3 JUMP JUMPDEST PUSH1 0x0 DUP2 ISZERO ISZERO SWAP1 POP SWAP2 SWAP1 POP JUMP JUMPDEST PUSH2 0xD4E DUP2 PUSH2 0xD39 JUMP JUMPDEST DUP3 MSTORE POP POP JUMP JUMPDEST PUSH1 0x0 PUSH1 0x20 DUP3 ADD SWAP1 POP PUSH2 0xD69 PUSH1 0x0 DUP4 ADD DUP5 PUSH2 0xD45 JUMP JUMPDEST SWAP3 SWAP2 POP POP JUMP JUMPDEST PUSH1 0x0 PUSH1 0x20 DUP3 DUP5 SUB SLT ISZERO PUSH2 0xD85 JUMPI PUSH2 0xD84 PUSH2 0xB35 JUMP JUMPDEST JUMPDEST PUSH1 0x0 PUSH2 0xD93 DUP5 DUP3 DUP6 ADD PUSH2 0xCD1 JUMP JUMPDEST SWAP2 POP POP SWAP3 SWAP2 POP POP JUMP JUMPDEST PUSH32 0x4E487B7100000000000000000000000000000000000000000000000000000000 PUSH1 0x0 MSTORE PUSH1 0x12 PUSH1 0x4 MSTORE PUSH1 0x24 PUSH1 0x0 REVERT JUMPDEST PUSH32 0x4E487B7100000000000000000000000000000000000000000000000000000000 PUSH1 0x0 MSTORE PUSH1 0x11 PUSH1 0x4 MSTORE PUSH1 0x24 PUSH1 0x0 REVERT JUMPDEST PUSH1 0x0 PUSH2 0xE05 DUP3 PUSH2 0xB01 JUMP JUMPDEST SWAP2 POP PUSH2 0xE10 DUP4 PUSH2 0xB01 JUMP JUMPDEST SWAP3 POP DUP3 PUSH2 0xE20 JUMPI PUSH2 0xE1F PUSH2 0xD9C JUMP JUMPDEST JUMPDEST DUP3 DUP3 DIV SWAP1 POP SWAP3 SWAP2 POP POP JUMP JUMPDEST PUSH1 0x0 PUSH2 0xE36 DUP3 PUSH2 0xB01 JUMP JUMPDEST SWAP2 POP PUSH2 0xE41 DUP4 PUSH2 0xB01 JUMP JUMPDEST SWAP3 POP DUP3 DUP3 MUL PUSH2 0xE4F DUP2 PUSH2 0xB01 JUMP JUMPDEST SWAP2 POP DUP3 DUP3 DIV DUP5 EQ DUP4 ISZERO OR PUSH2 0xE66 JUMPI PUSH2 0xE65 PUSH2 0xDCB JUMP JUMPDEST JUMPDEST POP SWAP3 SWAP2 POP POP JUMP JUMPDEST PUSH1 0x0 DUP3 DUP3 MSTORE PUSH1 0x20 DUP3 ADD SWAP1 POP SWAP3 SWAP2 POP POP JUMP JUMPDEST PUSH32 0x4E6F7420656E6F7567682062616C616E636520696E2074686520636F6E747261 PUSH1 0x0 DUP3 ADD MSTORE PUSH32 0x6374000000000000000000000000000000000000000000000000000000000000 PUSH1 0x20 DUP3 ADD MSTORE POP JUMP JUMPDEST PUSH1 0x0 PUSH2 0xEDA PUSH1 0x22 DUP4 PUSH2 0xE6D JUMP JUMPDEST SWAP2 POP PUSH2 0xEE5 DUP3 PUSH2 0xE7E JUMP JUMPDEST PUSH1 0x40 DUP3 ADD SWAP1 POP SWAP2 SWAP1 POP JUMP JUMPDEST PUSH1 0x0 PUSH1 0x20 DUP3 ADD SWAP1 POP DUP2 DUP2 SUB PUSH1 0x0 DUP4 ADD MSTORE PUSH2 0xF09 DUP2 PUSH2 0xECD JUMP JUMPDEST SWAP1 POP SWAP2 SWAP1 POP JUMP JUMPDEST PUSH1 0x0 DUP2 SWAP1 POP SWAP3 SWAP2 POP POP JUMP JUMPDEST POP JUMP JUMPDEST PUSH1 0x0 PUSH2 0xF2B PUSH1 0x0 DUP4 PUSH2 0xF10 JUMP JUMPDEST SWAP2 POP PUSH2 0xF36 DUP3 PUSH2 0xF1B JUMP JUMPDEST PUSH1 0x0 DUP3 ADD SWAP1 POP SWAP2 SWAP1 POP JUMP JUMPDEST PUSH1 0x0 PUSH2 0xF4C DUP3 PUSH2 0xF1E JUMP JUMPDEST SWAP2 POP DUP2 SWAP1 POP SWAP2 SWAP1 POP JUMP JUMPDEST PUSH32 0x455448207472616E73666572206661696C656400000000000000000000000000 PUSH1 0x0 DUP3 ADD MSTORE POP JUMP JUMPDEST PUSH1 0x0 PUSH2 0xF8C PUSH1 0x13 DUP4 PUSH2 0xE6D JUMP JUMPDEST SWAP2 POP PUSH2 0xF97 DUP3 PUSH2 0xF56 JUMP JUMPDEST PUSH1 0x20 DUP3 ADD SWAP1 POP SWAP2 SWAP1 POP JUMP JUMPDEST PUSH1 0x0 PUSH1 0x20 DUP3 ADD SWAP1 POP DUP2 DUP2 SUB PUSH1 0x0 DUP4 ADD MSTORE PUSH2 0xFBB DUP2 PUSH2 0xF7F JUMP JUMPDEST SWAP1 POP SWAP2 SWAP1 POP JUMP JUMPDEST PUSH32 0x496E76616C696420726F6F742049440000000000000000000000000000000000 PUSH1 0x0 DUP3 ADD MSTORE POP JUMP JUMPDEST PUSH1 0x0 PUSH2 0xFF8 PUSH1 0xF DUP4 PUSH2 0xE6D JUMP JUMPDEST SWAP2 POP PUSH2 0x1003 DUP3 PUSH2 0xFC2 JUMP JUMPDEST PUSH1 0x20 DUP3 ADD SWAP1 POP SWAP2 SWAP1 POP JUMP JUMPDEST PUSH1 0x0 PUSH1 0x20 DUP3 ADD SWAP1 POP DUP2 DUP2 SUB PUSH1 0x0 DUP4 ADD MSTORE PUSH2 0x1027 DUP2 PUSH2 0xFEB JUMP JUMPDEST SWAP1 POP SWAP2 SWAP1 POP JUMP JUMPDEST PUSH32 0x4F6E6C792074686520636F6E7472616374206F776E65722063616E2063616C6C PUSH1 0x0 DUP3 ADD MSTORE PUSH32 0x20746869732066756E6374696F6E000000000000000000000000000000000000 PUSH1 0x20 DUP3 ADD MSTORE POP JUMP JUMPDEST PUSH1 0x0 PUSH2 0x108A PUSH1 0x2E DUP4 PUSH2 0xE6D JUMP JUMPDEST SWAP2 POP PUSH2 0x1095 DUP3 PUSH2 0x102E JUMP JUMPDEST PUSH1 0x40 DUP3 ADD SWAP1 POP SWAP2 SWAP1 POP JUMP JUMPDEST PUSH1 0x0 PUSH1 0x20 DUP3 ADD SWAP1 POP DUP2 DUP2 SUB PUSH1 0x0 DUP4 ADD MSTORE PUSH2 0x10B9 DUP2 PUSH2 0x107D JUMP JUMPDEST SWAP1 POP SWAP2 SWAP1 POP JUMP JUMPDEST PUSH32 0x4572726F723A20496E76616C6964207369676E6572732E000000000000000000 PUSH1 0x0 DUP3 ADD MSTORE POP JUMP JUMPDEST PUSH1 0x0 PUSH2 0x10F6 PUSH1 0x17 DUP4 PUSH2 0xE6D JUMP JUMPDEST SWAP2 POP PUSH2 0x1101 DUP3 PUSH2 0x10C0 JUMP JUMPDEST PUSH1 0x20 DUP3 ADD SWAP1 POP SWAP2 SWAP1 POP JUMP JUMPDEST PUSH1 0x0 PUSH1 0x20 DUP3 ADD SWAP1 POP DUP2 DUP2 SUB PUSH1 0x0 DUP4 ADD MSTORE PUSH2 0x1125 DUP2 PUSH2 0x10E9 JUMP JUMPDEST SWAP1 POP SWAP2 SWAP1 POP JUMP JUMPDEST PUSH1 0x0 PUSH2 0x1137 DUP3 PUSH2 0xB01 JUMP JUMPDEST SWAP2 POP PUSH32 0xFFFFFFFFFFFFFFFFFFFFFFFFFFFFFFFFFFFFFFFFFFFFFFFFFFFFFFFFFFFFFFFF DUP3 SUB PUSH2 0x1169 JUMPI PUSH2 0x1168 PUSH2 0xDCB JUMP JUMPDEST JUMPDEST PUSH1 0x1 DUP3 ADD SWAP1 POP SWAP2 SWAP1 POP JUMP JUMPDEST PUSH1 0x0 PUSH1 0x40 DUP3 ADD SWAP1 POP PUSH2 0x1189 PUSH1 0x0 DUP4 ADD DUP6 PUSH2 0xB0B JUMP JUMPDEST PUSH2 0x1196 PUSH1 0x20 DUP4 ADD DUP5 PUSH2 0xC52 JUMP JUMPDEST SWAP4 SWAP3 POP POP POP JUMP JUMPDEST PUSH1 0x0 PUSH2 0x11A8 DUP3 PUSH2 0xB01 JUMP JUMPDEST SWAP2 POP PUSH2 0x11B3 DUP4 PUSH2 0xB01 JUMP JUMPDEST SWAP3 POP DUP3 DUP3 SUB SWAP1 POP DUP2 DUP2 GT ISZERO PUSH2 0x11CB JUMPI PUSH2 0x11CA PUSH2 0xDCB JUMP JUMPDEST JUMPDEST SWAP3 SWAP2 POP POP JUMP JUMPDEST PUSH32 0x4572726F723A2022746F222061646472657373206D757374206E6F7420626520 PUSH1 0x0 DUP3 ADD MSTORE PUSH32 0x302E000000000000000000000000000000000000000000000000000000000000 PUSH1 0x20 DUP3 ADD MSTORE POP JUMP JUMPDEST PUSH1 0x0 PUSH2 0x122D PUSH1 0x22 DUP4 PUSH2 0xE6D JUMP JUMPDEST SWAP2 POP PUSH2 0x1238 DUP3 PUSH2 0x11D1 JUMP JUMPDEST PUSH1 0x40 DUP3 ADD SWAP1 POP SWAP2 SWAP1 POP JUMP JUMPDEST PUSH1 0x0 PUSH1 0x20 DUP3 ADD SWAP1 POP DUP2 DUP2 SUB PUSH1 0x0 DUP4 ADD MSTORE PUSH2 0x125C DUP2 PUSH2 0x1220 JUMP JUMPDEST SWAP1 POP SWAP2 SWAP1 POP JUMP JUMPDEST PUSH32 0x4572726F723A2076616C7565206D757374206265206772656174657220746861 PUSH1 0x0 DUP3 ADD MSTORE PUSH32 0x6E20302E00000000000000000000000000000000000000000000000000000000 PUSH1 0x20 DUP3 ADD MSTORE POP JUMP JUMPDEST PUSH1 0x0 PUSH2 0x12BF PUSH1 0x24 DUP4 PUSH2 0xE6D JUMP JUMPDEST SWAP2 POP PUSH2 0x12CA DUP3 PUSH2 0x1263 JUMP JUMPDEST PUSH1 0x40 DUP3 ADD SWAP1 POP SWAP2 SWAP1 POP JUMP JUMPDEST PUSH1 0x0 PUSH1 0x20 DUP3 ADD SWAP1 POP DUP2 DUP2 SUB PUSH1 0x0 DUP4 ADD MSTORE PUSH2 0x12EE DUP2 PUSH2 0x12B2 JUMP JUMPDEST SWAP1 POP SWAP2 SWAP1 POP JUMP JUMPDEST PUSH32 0x4572726F723A206E6F7420656E6F7567682062616C616E63652E000000000000 PUSH1 0x0 DUP3 ADD MSTORE POP JUMP JUMPDEST PUSH1 0x0 PUSH2 0x132B PUSH1 0x1A DUP4 PUSH2 0xE6D JUMP JUMPDEST SWAP2 POP PUSH2 0x1336 DUP3 PUSH2 0x12F5 JUMP JUMPDEST PUSH1 0x20 DUP3 ADD SWAP1 POP SWAP2 SWAP1 POP JUMP JUMPDEST PUSH1 0x0 PUSH1 0x20 DUP3 ADD SWAP1 POP DUP2 DUP2 SUB PUSH1 0x0 DUP4 ADD MSTORE PUSH2 0x135A DUP2 PUSH2 0x131E JUMP JUMPDEST SWAP1 POP SWAP2 SWAP1 POP JUMP JUMPDEST PUSH32 0x4E6F206465706F7369746F727320746F207472616E736665722045544820746F PUSH1 0x0 DUP3 ADD MSTORE POP JUMP JUMPDEST PUSH1 0x0 PUSH2 0x1397 PUSH1 0x20 DUP4 PUSH2 0xE6D JUMP JUMPDEST SWAP2 POP PUSH2 0x13A2 DUP3 PUSH2 0x1361 JUMP JUMPDEST PUSH1 0x20 DUP3 ADD SWAP1 POP SWAP2 SWAP1 POP JUMP JUMPDEST PUSH1 0x0 PUSH1 0x20 DUP3 ADD SWAP1 POP DUP2 DUP2 SUB PUSH1 0x0 DUP4 ADD MSTORE PUSH2 0x13C6 DUP2 PUSH2 0x138A JUMP JUMPDEST SWAP1 POP SWAP2 SWAP1 POP JUMP JUMPDEST PUSH32 0x4E487B7100000000000000000000000000000000000000000000000000000000 PUSH1 0x0 MSTORE PUSH1 0x32 PUSH1 0x4 MSTORE PUSH1 0x24 PUSH1 0x0 REVERT JUMPDEST PUSH32 0x5472616E7366657220746F2074686520726563697069656E7420616464726573 PUSH1 0x0 DUP3 ADD MSTORE PUSH32 0x73206661696C6564000000000000000000000000000000000000000000000000 PUSH1 0x20 DUP3 ADD MSTORE POP JUMP JUMPDEST PUSH1 0x0 PUSH2 0x1458 PUSH1 0x28 DUP4 PUSH2 0xE6D JUMP JUMPDEST SWAP2 POP PUSH2 0x1463 DUP3 PUSH2 0x13FC JUMP JUMPDEST PUSH1 0x40 DUP3 ADD SWAP1 POP SWAP2 SWAP1 POP JUMP JUMPDEST PUSH1 0x0 PUSH1 0x20 DUP3 ADD SWAP1 POP DUP2 DUP2 SUB PUSH1 0x0 DUP4 ADD MSTORE PUSH2 0x1487 DUP2 PUSH2 0x144B JUMP JUMPDEST SWAP1 POP SWAP2 SWAP1 POP JUMP JUMPDEST PUSH1 0x0 PUSH2 0x1499 DUP3 PUSH2 0xB01 JUMP JUMPDEST SWAP2 POP PUSH2 0x14A4 DUP4 PUSH2 0xB01 JUMP JUMPDEST SWAP3 POP DUP3 DUP3 ADD SWAP1 POP DUP1 DUP3 GT ISZERO PUSH2 0x14BC JUMPI PUSH2 0x14BB PUSH2 0xDCB JUMP JUMPDEST JUMPDEST SWAP3 SWAP2 POP POP JUMP INVALID LOG2 PUSH5 0x6970667358 0x22 SLT KECCAK256 0x2B PUSH10 0xEBAB2D5DD466CF9B9157 DUP5 0xB0 KECCAK256 CALL CREATE 0xDC 0x4A SWAP15 0xD6 DUP10 BALANCE SWAP10 MOD REVERT SWAP9 0xDA DUP9 0xC3 DIV PUSH24 0x64736F6C6343000814003300000000000000000000000000 "},"methodIdentifiers":{"addRoot(bytes32)":"d59e6461","balanceOf(address)":"70a08231","deposit()":"d0e30db0","getRoot(uint256)":"9b24b3b0","owner()":"8da5cb5b","totalSupply()":"18160ddd","verifiedTransfer(address,bytes32,uint256)":"b987faae","withdraw(uint256)":"2e1a7d4d"}}}}}