{
  "_format": "hh-sol-artifact-1",
  "contractName": "ContractFactory",
  "sourceName": "contracts/ContractFactory.sol",
  "abi": [
    {
      "anonymous": false,
      "inputs": [
        {
          "indexed": false,
          "internalType": "address",
          "name": "addr",
          "type": "address"
        }
      ],
      "name": "Deploy",
      "type": "event"
    },
    {
      "inputs": [
        {
          "internalType": "bytes",
          "name": "bytecode_",
          "type": "bytes"
        },
        {
          "internalType": "bytes32",
          "name": "salt_",
          "type": "bytes32"
        }
      ],
      "name": "deploy",
      "outputs": [
        {
          "internalType": "address",
          "name": "",
          "type": "address"
        }
      ],
      "stateMutability": "nonpayable",
      "type": "function"
    }
  ],
  "bytecode": "0x608060405234801561001057600080fd5b50610339806100206000396000f3fe608060405234801561001057600080fd5b506004361061002b5760003560e01c80634af63f0214610030575b600080fd5b61004a6004803603810190610045919061024b565b610060565b60405161005791906102e8565b60405180910390f35b600080828451602086016000f59050803b61007a57600080fd5b7f55ea6c6b31543d8e2ec6a72f71a79c0f4b72ed0d4757172b043d8f4f4cd84848816040516100a991906102e8565b60405180910390a18091505092915050565b6000604051905090565b600080fd5b600080fd5b600080fd5b600080fd5b6000601f19601f8301169050919050565b7f4e487b7100000000000000000000000000000000000000000000000000000000600052604160045260246000fd5b610122826100d9565b810181811067ffffffffffffffff82111715610141576101406100ea565b5b80604052505050565b60006101546100bb565b90506101608282610119565b919050565b600067ffffffffffffffff8211156101805761017f6100ea565b5b610189826100d9565b9050602081019050919050565b82818337600083830152505050565b60006101b86101b384610165565b61014a565b9050828152602081018484840111156101d4576101d36100d4565b5b6101df848285610196565b509392505050565b600082601f8301126101fc576101fb6100cf565b5b813561020c8482602086016101a5565b91505092915050565b6000819050919050565b61022881610215565b811461023357600080fd5b50565b6000813590506102458161021f565b92915050565b60008060408385031215610262576102616100c5565b5b600083013567ffffffffffffffff8111156102805761027f6100ca565b5b61028c858286016101e7565b925050602061029d85828601610236565b9150509250929050565b600073ffffffffffffffffffffffffffffffffffffffff82169050919050565b60006102d2826102a7565b9050919050565b6102e2816102c7565b82525050565b60006020820190506102fd60008301846102d9565b9291505056fea2646970667358221220de61ead2fc3913ac59b63aeff2254d8b642e8e854e11889f5420595e6e45d02b64736f6c63430008130033",
  "linkReferences": {},
  "deployedLinkReferences": {}
}