{
  "_format": "hh-sol-artifact-1",
  "contractName": "Base",
  "sourceName": "contracts/Base.sol",
  "abi": [
    {
      "inputs": [
        {
          "internalType": "address",
          "name": "_owner",
          "type": "address"
        }
      ],
      "stateMutability": "nonpayable",
      "type": "constructor"
    },
    {
      "anonymous": false,
      "inputs": [
        {
          "indexed": true,
          "internalType": "address",
          "name": "sender",
          "type": "address"
        },
        {
          "indexed": false,
          "internalType": "uint256",
          "name": "value",
          "type": "uint256"
        }
      ],
      "name": "Received",
      "type": "event"
    },
    {
      "anonymous": false,
      "inputs": [
        {
          "indexed": true,
          "internalType": "address",
          "name": "from",
          "type": "address"
        },
        {
          "indexed": true,
          "internalType": "address",
          "name": "to",
          "type": "address"
        },
        {
          "indexed": false,
          "internalType": "uint256",
          "name": "amount",
          "type": "uint256"
        }
      ],
      "name": "Transfer",
      "type": "event"
    },
    {
      "inputs": [],
      "name": "readOwner",
      "outputs": [
        {
          "internalType": "address",
          "name": "",
          "type": "address"
        }
      ],
      "stateMutability": "view",
      "type": "function"
    },
    {
      "inputs": [
        {
          "internalType": "address payable",
          "name": "to",
          "type": "address"
        }
      ],
      "name": "transfer",
      "outputs": [
        {
          "internalType": "bool",
          "name": "",
          "type": "bool"
        }
      ],
      "stateMutability": "payable",
      "type": "function"
    },
    {
      "stateMutability": "payable",
      "type": "receive"
    }
  ],
  "bytecode": "0x608060405234801561001057600080fd5b506040516106e83803806106e8833981810160405281019061003291906100db565b806000806101000a81548173ffffffffffffffffffffffffffffffffffffffff021916908373ffffffffffffffffffffffffffffffffffffffff16021790555050610108565b600080fd5b600073ffffffffffffffffffffffffffffffffffffffff82169050919050565b60006100a88261007d565b9050919050565b6100b88161009d565b81146100c357600080fd5b50565b6000815190506100d5816100af565b92915050565b6000602082840312156100f1576100f0610078565b5b60006100ff848285016100c6565b91505092915050565b6105d1806101176000396000f3fe60806040526004361061002d5760003560e01c80631a695230146100875780639389acb5146100b757610082565b36610082573373ffffffffffffffffffffffffffffffffffffffff167f88a5966d370b9919b20f3e2c13ff65706f196a4e32cc2c12bf57088f885258743460405161007891906102b7565b60405180910390a2005b600080fd5b6100a1600480360381019061009c9190610335565b6100e2565b6040516100ae919061037d565b60405180910390f35b3480156100c357600080fd5b506100cc610275565b6040516100d991906103b9565b60405180910390f35b60008060009054906101000a900473ffffffffffffffffffffffffffffffffffffffff1673ffffffffffffffffffffffffffffffffffffffff163373ffffffffffffffffffffffffffffffffffffffff1614610173576040517f08c379a000000000000000000000000000000000000000000000000000000000815260040161016a90610457565b60405180910390fd5b600073ffffffffffffffffffffffffffffffffffffffff168273ffffffffffffffffffffffffffffffffffffffff16036101e2576040517f08c379a00000000000000000000000000000000000000000000000000000000081526004016101d9906104e9565b60405180910390fd5b60003411610225576040517f08c379a000000000000000000000000000000000000000000000000000000000815260040161021c9061057b565b60405180910390fd5b8173ffffffffffffffffffffffffffffffffffffffff166108fc349081150290604051600060405180830381858888f1935050505015801561026b573d6000803e3d6000fd5b5060019050919050565b60008060009054906101000a900473ffffffffffffffffffffffffffffffffffffffff16905090565b6000819050919050565b6102b18161029e565b82525050565b60006020820190506102cc60008301846102a8565b92915050565b600080fd5b600073ffffffffffffffffffffffffffffffffffffffff82169050919050565b6000610302826102d7565b9050919050565b610312816102f7565b811461031d57600080fd5b50565b60008135905061032f81610309565b92915050565b60006020828403121561034b5761034a6102d2565b5b600061035984828501610320565b91505092915050565b60008115159050919050565b61037781610362565b82525050565b6000602082019050610392600083018461036e565b92915050565b60006103a3826102d7565b9050919050565b6103b381610398565b82525050565b60006020820190506103ce60008301846103aa565b92915050565b600082825260208201905092915050565b7f4f6e6c792074686520636f6e7472616374206f776e65722063616e2063616c6c60008201527f20746869732066756e6374696f6e000000000000000000000000000000000000602082015250565b6000610441602e836103d4565b915061044c826103e5565b604082019050919050565b6000602082019050818103600083015261047081610434565b9050919050565b7f4572726f723a2027746f272061646472657373206d757374206e6f742062652060008201527f302e000000000000000000000000000000000000000000000000000000000000602082015250565b60006104d36022836103d4565b91506104de82610477565b604082019050919050565b60006020820190508181036000830152610502816104c6565b9050919050565b7f4572726f723a20416d6f756e7420746f207472616e73666572206d757374206260008201527f652067726561746572207468616e203000000000000000000000000000000000602082015250565b60006105656030836103d4565b915061057082610509565b604082019050919050565b6000602082019050818103600083015261059481610558565b905091905056fea2646970667358221220a44468c19a840f8d026098ae98ffa33541131a6995bc6d93d498d91feb23d05064736f6c63430008140033",
  "linkReferences": {},
  "deployedLinkReferences": {}
}