{
  "_format": "hh-sol-artifact-1",
  "contractName": "Base",
  "sourceName": "contracts/Base.sol",
  "abi": [
    {
      "inputs": [
        {
          "internalType": "address",
          "name": "_owner",
          "type": "address"
        }
      ],
      "stateMutability": "nonpayable",
      "type": "constructor"
    },
    {
      "inputs": [
        {
          "internalType": "address",
          "name": "target",
          "type": "address"
        }
      ],
      "name": "AddressEmptyCode",
      "type": "error"
    },
    {
      "inputs": [
        {
          "internalType": "address",
          "name": "account",
          "type": "address"
        }
      ],
      "name": "AddressInsufficientBalance",
      "type": "error"
    },
    {
      "inputs": [],
      "name": "FailedInnerCall",
      "type": "error"
    },
    {
      "inputs": [
        {
          "internalType": "address",
          "name": "token",
          "type": "address"
        }
      ],
      "name": "SafeERC20FailedOperation",
      "type": "error"
    },
    {
      "anonymous": false,
      "inputs": [
        {
          "indexed": true,
          "internalType": "address",
          "name": "sender",
          "type": "address"
        },
        {
          "indexed": false,
          "internalType": "uint256",
          "name": "amount",
          "type": "uint256"
        }
      ],
      "name": "Deposit",
      "type": "event"
    },
    {
      "anonymous": false,
      "inputs": [
        {
          "indexed": true,
          "internalType": "address",
          "name": "sender",
          "type": "address"
        },
        {
          "indexed": false,
          "internalType": "uint256",
          "name": "value",
          "type": "uint256"
        }
      ],
      "name": "Received",
      "type": "event"
    },
    {
      "anonymous": false,
      "inputs": [
        {
          "indexed": true,
          "internalType": "address",
          "name": "from",
          "type": "address"
        },
        {
          "indexed": true,
          "internalType": "address",
          "name": "to",
          "type": "address"
        },
        {
          "indexed": false,
          "internalType": "uint256",
          "name": "amount",
          "type": "uint256"
        }
      ],
      "name": "Transfer",
      "type": "event"
    },
    {
      "anonymous": false,
      "inputs": [
        {
          "indexed": true,
          "internalType": "address",
          "name": "receiver",
          "type": "address"
        },
        {
          "indexed": false,
          "internalType": "uint256",
          "name": "amount",
          "type": "uint256"
        }
      ],
      "name": "Withdraw",
      "type": "event"
    },
    {
      "inputs": [
        {
          "internalType": "address",
          "name": "token",
          "type": "address"
        }
      ],
      "name": "addToken",
      "outputs": [],
      "stateMutability": "nonpayable",
      "type": "function"
    },
    {
      "inputs": [
        {
          "internalType": "address",
          "name": "token",
          "type": "address"
        },
        {
          "internalType": "address",
          "name": "spender",
          "type": "address"
        },
        {
          "internalType": "uint256",
          "name": "value",
          "type": "uint256"
        }
      ],
      "name": "approveToken",
      "outputs": [],
      "stateMutability": "nonpayable",
      "type": "function"
    },
    {
      "inputs": [],
      "name": "deposit",
      "outputs": [
        {
          "internalType": "bool",
          "name": "",
          "type": "bool"
        }
      ],
      "stateMutability": "payable",
      "type": "function"
    },
    {
      "inputs": [],
      "name": "getContractBalance",
      "outputs": [
        {
          "internalType": "uint256",
          "name": "",
          "type": "uint256"
        }
      ],
      "stateMutability": "view",
      "type": "function"
    },
    {
      "inputs": [
        {
          "internalType": "address",
          "name": "token",
          "type": "address"
        },
        {
          "internalType": "address",
          "name": "_owner",
          "type": "address"
        },
        {
          "internalType": "address",
          "name": "spender",
          "type": "address"
        }
      ],
      "name": "getTokenAllowance",
      "outputs": [
        {
          "internalType": "uint256",
          "name": "",
          "type": "uint256"
        }
      ],
      "stateMutability": "view",
      "type": "function"
    },
    {
      "inputs": [
        {
          "internalType": "address",
          "name": "token",
          "type": "address"
        }
      ],
      "name": "getTokenBalance",
      "outputs": [
        {
          "internalType": "uint256",
          "name": "",
          "type": "uint256"
        }
      ],
      "stateMutability": "view",
      "type": "function"
    },
    {
      "inputs": [],
      "name": "readOwner",
      "outputs": [
        {
          "internalType": "address",
          "name": "",
          "type": "address"
        }
      ],
      "stateMutability": "view",
      "type": "function"
    },
    {
      "inputs": [
        {
          "internalType": "address",
          "name": "token",
          "type": "address"
        }
      ],
      "name": "removeToken",
      "outputs": [],
      "stateMutability": "nonpayable",
      "type": "function"
    },
    {
      "inputs": [
        {
          "internalType": "address",
          "name": "token",
          "type": "address"
        },
        {
          "internalType": "address",
          "name": "_owner",
          "type": "address"
        },
        {
          "internalType": "address",
          "name": "to",
          "type": "address"
        },
        {
          "internalType": "uint256",
          "name": "value",
          "type": "uint256"
        }
      ],
      "name": "spendTokenAllowance",
      "outputs": [],
      "stateMutability": "nonpayable",
      "type": "function"
    },
    {
      "inputs": [
        {
          "internalType": "address",
          "name": "",
          "type": "address"
        }
      ],
      "name": "supportedTokens",
      "outputs": [
        {
          "internalType": "bool",
          "name": "",
          "type": "bool"
        }
      ],
      "stateMutability": "view",
      "type": "function"
    },
    {
      "inputs": [
        {
          "internalType": "address payable",
          "name": "to",
          "type": "address"
        },
        {
          "internalType": "uint256",
          "name": "value",
          "type": "uint256"
        }
      ],
      "name": "transfer",
      "outputs": [
        {
          "internalType": "bool",
          "name": "",
          "type": "bool"
        }
      ],
      "stateMutability": "nonpayable",
      "type": "function"
    },
    {
      "inputs": [
        {
          "internalType": "address",
          "name": "token",
          "type": "address"
        },
        {
          "internalType": "address",
          "name": "to",
          "type": "address"
        },
        {
          "internalType": "uint256",
          "name": "value",
          "type": "uint256"
        }
      ],
      "name": "transferToken",
      "outputs": [
        {
          "internalType": "bool",
          "name": "",
          "type": "bool"
        }
      ],
      "stateMutability": "nonpayable",
      "type": "function"
    },
    {
      "inputs": [
        {
          "internalType": "address",
          "name": "token",
          "type": "address"
        },
        {
          "internalType": "address",
          "name": "from",
          "type": "address"
        },
        {
          "internalType": "address",
          "name": "to",
          "type": "address"
        },
        {
          "internalType": "uint256",
          "name": "value",
          "type": "uint256"
        }
      ],
      "name": "transferTokenFrom",
      "outputs": [
        {
          "internalType": "bool",
          "name": "",
          "type": "bool"
        }
      ],
      "stateMutability": "nonpayable",
      "type": "function"
    },
    {
      "inputs": [
        {
          "internalType": "uint256",
          "name": "amount",
          "type": "uint256"
        }
      ],
      "name": "withdraw",
      "outputs": [
        {
          "internalType": "bool",
          "name": "",
          "type": "bool"
        }
      ],
      "stateMutability": "nonpayable",
      "type": "function"
    },
    {
      "inputs": [
        {
          "internalType": "address",
          "name": "token",
          "type": "address"
        },
        {
          "internalType": "uint256",
          "name": "value",
          "type": "uint256"
        }
      ],
      "name": "withdrawToken",
      "outputs": [
        {
          "internalType": "bool",
          "name": "",
          "type": "bool"
        }
      ],
      "stateMutability": "nonpayable",
      "type": "function"
    },
    {
      "stateMutability": "payable",
      "type": "receive"
    }
  ],
  "bytecode": "0x60806040523480156200001157600080fd5b50604051620031d4380380620031d48339818101604052810190620000379190620000e8565b806000806101000a81548173ffffffffffffffffffffffffffffffffffffffff021916908373ffffffffffffffffffffffffffffffffffffffff160217905550506200011a565b600080fd5b600073ffffffffffffffffffffffffffffffffffffffff82169050919050565b6000620000b08262000083565b9050919050565b620000c281620000a3565b8114620000ce57600080fd5b50565b600081519050620000e281620000b7565b92915050565b6000602082840312156200010157620001006200007e565b5b60006200011184828501620000d1565b91505092915050565b6130aa806200012a6000396000f3fe6080604052600436106100ec5760003560e01c80639e281a981161008a578063d48bfca711610059578063d48bfca71461037a578063da3e3397146103a3578063e5994905146103cc578063f5537ede1461040957610141565b80639e281a98146102b9578063a9059cbb146102f6578063bdee88c114610333578063d0e30db01461035c57610141565b806368c4ac26116100c657806368c4ac26146101e95780636f9fb98a146102265780639389acb51461025157806394b31fbd1461027c57610141565b80632e1a7d4d146101465780633aecd0e3146101835780635fa7b584146101c057610141565b36610141573373ffffffffffffffffffffffffffffffffffffffff167f88a5966d370b9919b20f3e2c13ff65706f196a4e32cc2c12bf57088f885258743460405161013791906123cf565b60405180910390a2005b600080fd5b34801561015257600080fd5b5061016d6004803603810190610168919061241b565b610446565b60405161017a9190612463565b60405180910390f35b34801561018f57600080fd5b506101aa60048036038101906101a591906124dc565b6106a2565b6040516101b791906123cf565b60405180910390f35b3480156101cc57600080fd5b506101e760048036038101906101e291906124dc565b61081f565b005b3480156101f557600080fd5b50610210600480360381019061020b91906124dc565b610a03565b60405161021d9190612463565b60405180910390f35b34801561023257600080fd5b5061023b610a23565b60405161024891906123cf565b60405180910390f35b34801561025d57600080fd5b50610266610a2b565b6040516102739190612518565b60405180910390f35b34801561028857600080fd5b506102a3600480360381019061029e9190612533565b610a54565b6040516102b091906123cf565b60405180910390f35b3480156102c557600080fd5b506102e060048036038101906102db9190612586565b610cb3565b6040516102ed9190612463565b60405180910390f35b34801561030257600080fd5b5061031d60048036038101906103189190612604565b610f45565b60405161032a9190612463565b60405180910390f35b34801561033f57600080fd5b5061035a60048036038101906103559190612644565b611207565b005b610364611549565b6040516103719190612463565b60405180910390f35b34801561038657600080fd5b506103a1600480360381019061039c91906124dc565b6115e2565b005b3480156103af57600080fd5b506103ca60048036038101906103c591906126ab565b6117c7565b005b3480156103d857600080fd5b506103f360048036038101906103ee9190612644565b611a43565b6040516104009190612463565b60405180910390f35b34801561041557600080fd5b50610430600480360381019061042b91906126ab565b611d8e565b60405161043d9190612463565b60405180910390f35b60008060009054906101000a900473ffffffffffffffffffffffffffffffffffffffff1673ffffffffffffffffffffffffffffffffffffffff163373ffffffffffffffffffffffffffffffffffffffff16146104d7576040517f08c379a00000000000000000000000000000000000000000000000000000000081526004016104ce90612781565b60405180910390fd5b6000821161051a576040517f08c379a000000000000000000000000000000000000000000000000000000000815260040161051190612813565b60405180910390fd5b4782111561055d576040517f08c379a0000000000000000000000000000000000000000000000000000000008152600401610554906128a5565b60405180910390fd5b60008060009054906101000a900473ffffffffffffffffffffffffffffffffffffffff1673ffffffffffffffffffffffffffffffffffffffff16836040516105a4906128f6565b60006040518083038185875af1925050503d80600081146105e1576040519150601f19603f3d011682016040523d82523d6000602084013e6105e6565b606091505b505090508061062a576040517f08c379a000000000000000000000000000000000000000000000000000000000815260040161062190612957565b60405180910390fd5b60008054906101000a900473ffffffffffffffffffffffffffffffffffffffff1673ffffffffffffffffffffffffffffffffffffffff167f884edad9ce6fa2440d8a54cc123490eb96d2768479d49ff9c7366125a94243648460405161069091906123cf565b60405180910390a26001915050919050565b60008073ffffffffffffffffffffffffffffffffffffffff168273ffffffffffffffffffffffffffffffffffffffff1603610712576040517f08c379a0000000000000000000000000000000000000000000000000000000008152600401610709906129c3565b60405180910390fd5b600260008373ffffffffffffffffffffffffffffffffffffffff1673ffffffffffffffffffffffffffffffffffffffff16815260200190815260200160002060009054906101000a900460ff1661079e576040517f08c379a000000000000000000000000000000000000000000000000000000000815260040161079590612a2f565b60405180910390fd5b8173ffffffffffffffffffffffffffffffffffffffff166370a08231306040518263ffffffff1660e01b81526004016107d79190612518565b602060405180830381865afa1580156107f4573d6000803e3d6000fd5b505050506040513d601f19601f820116820180604052508101906108189190612a64565b9050919050565b60008054906101000a900473ffffffffffffffffffffffffffffffffffffffff1673ffffffffffffffffffffffffffffffffffffffff163373ffffffffffffffffffffffffffffffffffffffff16146108ad576040517f08c379a00000000000000000000000000000000000000000000000000000000081526004016108a490612781565b60405180910390fd5b600073ffffffffffffffffffffffffffffffffffffffff168173ffffffffffffffffffffffffffffffffffffffff160361091c576040517f08c379a0000000000000000000000000000000000000000000000000000000008152600401610913906129c3565b60405180910390fd5b600260008273ffffffffffffffffffffffffffffffffffffffff1673ffffffffffffffffffffffffffffffffffffffff16815260200190815260200160002060009054906101000a900460ff166109a8576040517f08c379a000000000000000000000000000000000000000000000000000000000815260040161099f90612a2f565b60405180910390fd5b6000600260008373ffffffffffffffffffffffffffffffffffffffff1673ffffffffffffffffffffffffffffffffffffffff16815260200190815260200160002060006101000a81548160ff02191690831515021790555050565b60026020528060005260406000206000915054906101000a900460ff1681565b600047905090565b60008060009054906101000a900473ffffffffffffffffffffffffffffffffffffffff16905090565b60008073ffffffffffffffffffffffffffffffffffffffff168473ffffffffffffffffffffffffffffffffffffffff1603610ac4576040517f08c379a0000000000000000000000000000000000000000000000000000000008152600401610abb906129c3565b60405180910390fd5b600073ffffffffffffffffffffffffffffffffffffffff168373ffffffffffffffffffffffffffffffffffffffff1603610b33576040517f08c379a0000000000000000000000000000000000000000000000000000000008152600401610b2a90612add565b60405180910390fd5b600073ffffffffffffffffffffffffffffffffffffffff168273ffffffffffffffffffffffffffffffffffffffff1603610ba2576040517f08c379a0000000000000000000000000000000000000000000000000000000008152600401610b9990612b49565b60405180910390fd5b600260008573ffffffffffffffffffffffffffffffffffffffff1673ffffffffffffffffffffffffffffffffffffffff16815260200190815260200160002060009054906101000a900460ff16610c2e576040517f08c379a0000000000000000000000000000000000000000000000000000000008152600401610c2590612a2f565b60405180910390fd5b8373ffffffffffffffffffffffffffffffffffffffff1663dd62ed3e84846040518363ffffffff1660e01b8152600401610c69929190612b69565b602060405180830381865afa158015610c86573d6000803e3d6000fd5b505050506040513d601f19601f82011682018060405250810190610caa9190612a64565b90509392505050565b60008060009054906101000a900473ffffffffffffffffffffffffffffffffffffffff1673ffffffffffffffffffffffffffffffffffffffff163373ffffffffffffffffffffffffffffffffffffffff1614610d44576040517f08c379a0000000000000000000000000000000000000000000000000000000008152600401610d3b90612781565b60405180910390fd5b600073ffffffffffffffffffffffffffffffffffffffff168373ffffffffffffffffffffffffffffffffffffffff1603610db3576040517f08c379a0000000000000000000000000000000000000000000000000000000008152600401610daa906129c3565b60405180910390fd5b60008211610df6576040517f08c379a0000000000000000000000000000000000000000000000000000000008152600401610ded90612bde565b60405180910390fd5b600260008473ffffffffffffffffffffffffffffffffffffffff1673ffffffffffffffffffffffffffffffffffffffff16815260200190815260200160002060009054906101000a900460ff16610e82576040517f08c379a0000000000000000000000000000000000000000000000000000000008152600401610e7990612a2f565b60405180910390fd5b610ecd60008054906101000a900473ffffffffffffffffffffffffffffffffffffffff16838573ffffffffffffffffffffffffffffffffffffffff166120679092919063ffffffff16565b60008054906101000a900473ffffffffffffffffffffffffffffffffffffffff1673ffffffffffffffffffffffffffffffffffffffff167f884edad9ce6fa2440d8a54cc123490eb96d2768479d49ff9c7366125a942436483604051610f3391906123cf565b60405180910390a26001905092915050565b60008060009054906101000a900473ffffffffffffffffffffffffffffffffffffffff1673ffffffffffffffffffffffffffffffffffffffff163373ffffffffffffffffffffffffffffffffffffffff1614610fd6576040517f08c379a0000000000000000000000000000000000000000000000000000000008152600401610fcd90612781565b60405180910390fd5b600073ffffffffffffffffffffffffffffffffffffffff168373ffffffffffffffffffffffffffffffffffffffff1603611045576040517f08c379a000000000000000000000000000000000000000000000000000000000815260040161103c90612c70565b60405180910390fd5b60008211611088576040517f08c379a000000000000000000000000000000000000000000000000000000000815260040161107f90612d02565b60405180910390fd5b478211156110cb576040517f08c379a00000000000000000000000000000000000000000000000000000000081526004016110c290612d6e565b60405180910390fd5b60008373ffffffffffffffffffffffffffffffffffffffff16836040516110f1906128f6565b60006040518083038185875af1925050503d806000811461112e576040519150601f19603f3d011682016040523d82523d6000602084013e611133565b606091505b5050905080611177576040517f08c379a000000000000000000000000000000000000000000000000000000000815260040161116e90612dda565b60405180910390fd5b8373ffffffffffffffffffffffffffffffffffffffff1660008054906101000a900473ffffffffffffffffffffffffffffffffffffffff1673ffffffffffffffffffffffffffffffffffffffff167fddf252ad1be2c89b69c2b068fc378daa952ba7f163c4a11628f55a4df523b3ef856040516111f491906123cf565b60405180910390a3600191505092915050565b60008054906101000a900473ffffffffffffffffffffffffffffffffffffffff1673ffffffffffffffffffffffffffffffffffffffff163373ffffffffffffffffffffffffffffffffffffffff1614611295576040517f08c379a000000000000000000000000000000000000000000000000000000000815260040161128c90612781565b60405180910390fd5b600073ffffffffffffffffffffffffffffffffffffffff168473ffffffffffffffffffffffffffffffffffffffff1603611304576040517f08c379a00000000000000000000000000000000000000000000000000000000081526004016112fb906129c3565b60405180910390fd5b600073ffffffffffffffffffffffffffffffffffffffff168373ffffffffffffffffffffffffffffffffffffffff1603611373576040517f08c379a000000000000000000000000000000000000000000000000000000000815260040161136a90612add565b60405180910390fd5b600073ffffffffffffffffffffffffffffffffffffffff168273ffffffffffffffffffffffffffffffffffffffff16036113e2576040517f08c379a00000000000000000000000000000000000000000000000000000000081526004016113d990612e46565b60405180910390fd5b60008111611425576040517f08c379a000000000000000000000000000000000000000000000000000000000815260040161141c90612bde565b60405180910390fd5b600260008573ffffffffffffffffffffffffffffffffffffffff1673ffffffffffffffffffffffffffffffffffffffff16815260200190815260200160002060009054906101000a900460ff166114b1576040517f08c379a00000000000000000000000000000000000000000000000000000000081526004016114a890612a2f565b60405180910390fd5b6114de8383838773ffffffffffffffffffffffffffffffffffffffff166120e6909392919063ffffffff16565b8173ffffffffffffffffffffffffffffffffffffffff168373ffffffffffffffffffffffffffffffffffffffff167fddf252ad1be2c89b69c2b068fc378daa952ba7f163c4a11628f55a4df523b3ef8360405161153b91906123cf565b60405180910390a350505050565b600080341161158d576040517f08c379a000000000000000000000000000000000000000000000000000000000815260040161158490612d02565b60405180910390fd5b3373ffffffffffffffffffffffffffffffffffffffff167fe1fffcc4923d04b559f4d29a8bfc6cda04eb5b0d3c460751c2402c5c5cc9109c346040516115d391906123cf565b60405180910390a26001905090565b60008054906101000a900473ffffffffffffffffffffffffffffffffffffffff1673ffffffffffffffffffffffffffffffffffffffff163373ffffffffffffffffffffffffffffffffffffffff1614611670576040517f08c379a000000000000000000000000000000000000000000000000000000000815260040161166790612781565b60405180910390fd5b600073ffffffffffffffffffffffffffffffffffffffff168173ffffffffffffffffffffffffffffffffffffffff16036116df576040517f08c379a00000000000000000000000000000000000000000000000000000000081526004016116d6906129c3565b60405180910390fd5b600260008273ffffffffffffffffffffffffffffffffffffffff1673ffffffffffffffffffffffffffffffffffffffff16815260200190815260200160002060009054906101000a900460ff161561176c576040517f08c379a000000000000000000000000000000000000000000000000000000000815260040161176390612eb2565b60405180910390fd5b6001600260008373ffffffffffffffffffffffffffffffffffffffff1673ffffffffffffffffffffffffffffffffffffffff16815260200190815260200160002060006101000a81548160ff02191690831515021790555050565b60008054906101000a900473ffffffffffffffffffffffffffffffffffffffff1673ffffffffffffffffffffffffffffffffffffffff163373ffffffffffffffffffffffffffffffffffffffff1614611855576040517f08c379a000000000000000000000000000000000000000000000000000000000815260040161184c90612781565b60405180910390fd5b600073ffffffffffffffffffffffffffffffffffffffff168373ffffffffffffffffffffffffffffffffffffffff16036118c4576040517f08c379a00000000000000000000000000000000000000000000000000000000081526004016118bb906129c3565b60405180910390fd5b600073ffffffffffffffffffffffffffffffffffffffff168273ffffffffffffffffffffffffffffffffffffffff1603611933576040517f08c379a000000000000000000000000000000000000000000000000000000000815260040161192a90612b49565b60405180910390fd5b600260008473ffffffffffffffffffffffffffffffffffffffff1673ffffffffffffffffffffffffffffffffffffffff16815260200190815260200160002060009054906101000a900460ff166119bf576040517f08c379a00000000000000000000000000000000000000000000000000000000081526004016119b690612a2f565b60405180910390fd5b8273ffffffffffffffffffffffffffffffffffffffff1663095ea7b383836040518363ffffffff1660e01b81526004016119fa929190612ed2565b6020604051808303816000875af1158015611a19573d6000803e3d6000fd5b505050506040513d601f19601f82011682018060405250810190611a3d9190612f27565b50505050565b60008060009054906101000a900473ffffffffffffffffffffffffffffffffffffffff1673ffffffffffffffffffffffffffffffffffffffff163373ffffffffffffffffffffffffffffffffffffffff1614611ad4576040517f08c379a0000000000000000000000000000000000000000000000000000000008152600401611acb90612781565b60405180910390fd5b600073ffffffffffffffffffffffffffffffffffffffff168573ffffffffffffffffffffffffffffffffffffffff1603611b43576040517f08c379a0000000000000000000000000000000000000000000000000000000008152600401611b3a906129c3565b60405180910390fd5b600073ffffffffffffffffffffffffffffffffffffffff168473ffffffffffffffffffffffffffffffffffffffff1603611bb2576040517f08c379a0000000000000000000000000000000000000000000000000000000008152600401611ba990612fa0565b60405180910390fd5b600073ffffffffffffffffffffffffffffffffffffffff168373ffffffffffffffffffffffffffffffffffffffff1603611c21576040517f08c379a0000000000000000000000000000000000000000000000000000000008152600401611c1890612e46565b60405180910390fd5b60008211611c64576040517f08c379a0000000000000000000000000000000000000000000000000000000008152600401611c5b90612bde565b60405180910390fd5b600260008673ffffffffffffffffffffffffffffffffffffffff1673ffffffffffffffffffffffffffffffffffffffff16815260200190815260200160002060009054906101000a900460ff16611cf0576040517f08c379a0000000000000000000000000000000000000000000000000000000008152600401611ce790612a2f565b60405180910390fd5b611d1d8484848873ffffffffffffffffffffffffffffffffffffffff166120e6909392919063ffffffff16565b8273ffffffffffffffffffffffffffffffffffffffff168473ffffffffffffffffffffffffffffffffffffffff167fddf252ad1be2c89b69c2b068fc378daa952ba7f163c4a11628f55a4df523b3ef84604051611d7a91906123cf565b60405180910390a360019050949350505050565b60008060009054906101000a900473ffffffffffffffffffffffffffffffffffffffff1673ffffffffffffffffffffffffffffffffffffffff163373ffffffffffffffffffffffffffffffffffffffff1614611e1f576040517f08c379a0000000000000000000000000000000000000000000000000000000008152600401611e1690612781565b60405180910390fd5b600073ffffffffffffffffffffffffffffffffffffffff168473ffffffffffffffffffffffffffffffffffffffff1603611e8e576040517f08c379a0000000000000000000000000000000000000000000000000000000008152600401611e85906129c3565b60405180910390fd5b600073ffffffffffffffffffffffffffffffffffffffff168373ffffffffffffffffffffffffffffffffffffffff1603611efd576040517f08c379a0000000000000000000000000000000000000000000000000000000008152600401611ef490612e46565b60405180910390fd5b60008211611f40576040517f08c379a0000000000000000000000000000000000000000000000000000000008152600401611f3790612bde565b60405180910390fd5b600260008573ffffffffffffffffffffffffffffffffffffffff1673ffffffffffffffffffffffffffffffffffffffff16815260200190815260200160002060009054906101000a900460ff16611fcc576040517f08c379a0000000000000000000000000000000000000000000000000000000008152600401611fc390612a2f565b60405180910390fd5b611ff783838673ffffffffffffffffffffffffffffffffffffffff166120679092919063ffffffff16565b8273ffffffffffffffffffffffffffffffffffffffff163073ffffffffffffffffffffffffffffffffffffffff167fddf252ad1be2c89b69c2b068fc378daa952ba7f163c4a11628f55a4df523b3ef8460405161205491906123cf565b60405180910390a3600190509392505050565b6120e1838473ffffffffffffffffffffffffffffffffffffffff1663a9059cbb858560405160240161209a929190612ed2565b604051602081830303815290604052915060e01b6020820180517bffffffffffffffffffffffffffffffffffffffffffffffffffffffff8381831617835250505050612168565b505050565b612162848573ffffffffffffffffffffffffffffffffffffffff166323b872dd86868660405160240161211b93929190612fc0565b604051602081830303815290604052915060e01b6020820180517bffffffffffffffffffffffffffffffffffffffffffffffffffffffff8381831617835250505050612168565b50505050565b6000612193828473ffffffffffffffffffffffffffffffffffffffff166121ff90919063ffffffff16565b905060008151141580156121b85750808060200190518101906121b69190612f27565b155b156121fa57826040517f5274afe70000000000000000000000000000000000000000000000000000000081526004016121f19190612518565b60405180910390fd5b505050565b606061220d83836000612215565b905092915050565b60608147101561225c57306040517fcd7860590000000000000000000000000000000000000000000000000000000081526004016122539190612518565b60405180910390fd5b6000808573ffffffffffffffffffffffffffffffffffffffff168486604051612285919061305d565b60006040518083038185875af1925050503d80600081146122c2576040519150601f19603f3d011682016040523d82523d6000602084013e6122c7565b606091505b50915091506122d78683836122e2565b925050509392505050565b6060826122f7576122f282612371565b612369565b6000825114801561231f575060008473ffffffffffffffffffffffffffffffffffffffff163b145b1561236157836040517f9996b3150000000000000000000000000000000000000000000000000000000081526004016123589190612518565b60405180910390fd5b81905061236a565b5b9392505050565b6000815111156123845780518082602001fd5b6040517f1425ea4200000000000000000000000000000000000000000000000000000000815260040160405180910390fd5b6000819050919050565b6123c9816123b6565b82525050565b60006020820190506123e460008301846123c0565b92915050565b600080fd5b6123f8816123b6565b811461240357600080fd5b50565b600081359050612415816123ef565b92915050565b600060208284031215612431576124306123ea565b5b600061243f84828501612406565b91505092915050565b60008115159050919050565b61245d81612448565b82525050565b60006020820190506124786000830184612454565b92915050565b600073ffffffffffffffffffffffffffffffffffffffff82169050919050565b60006124a98261247e565b9050919050565b6124b98161249e565b81146124c457600080fd5b50565b6000813590506124d6816124b0565b92915050565b6000602082840312156124f2576124f16123ea565b5b6000612500848285016124c7565b91505092915050565b6125128161249e565b82525050565b600060208201905061252d6000830184612509565b92915050565b60008060006060848603121561254c5761254b6123ea565b5b600061255a868287016124c7565b935050602061256b868287016124c7565b925050604061257c868287016124c7565b9150509250925092565b6000806040838503121561259d5761259c6123ea565b5b60006125ab858286016124c7565b92505060206125bc85828601612406565b9150509250929050565b60006125d18261247e565b9050919050565b6125e1816125c6565b81146125ec57600080fd5b50565b6000813590506125fe816125d8565b92915050565b6000806040838503121561261b5761261a6123ea565b5b6000612629858286016125ef565b925050602061263a85828601612406565b9150509250929050565b6000806000806080858703121561265e5761265d6123ea565b5b600061266c878288016124c7565b945050602061267d878288016124c7565b935050604061268e878288016124c7565b925050606061269f87828801612406565b91505092959194509250565b6000806000606084860312156126c4576126c36123ea565b5b60006126d2868287016124c7565b93505060206126e3868287016124c7565b92505060406126f486828701612406565b9150509250925092565b600082825260208201905092915050565b7f4f6e6c792074686520636f6e7472616374206f776e65722063616e2063616c6c60008201527f20746869732066756e6374696f6e000000000000000000000000000000000000602082015250565b600061276b602e836126fe565b91506127768261270f565b604082019050919050565b6000602082019050818103600083015261279a8161275e565b9050919050565b7f4572726f723a20616d6f756e74206d757374206265206772656174657220746860008201527f616e20302e000000000000000000000000000000000000000000000000000000602082015250565b60006127fd6025836126fe565b9150612808826127a1565b604082019050919050565b6000602082019050818103600083015261282c816127f0565b9050919050565b7f4572726f723a206e6f7420656e6f7567682062616c616e636520696e2074686560008201527f20636f6e74726163742e00000000000000000000000000000000000000000000602082015250565b600061288f602a836126fe565b915061289a82612833565b604082019050919050565b600060208201905081810360008301526128be81612882565b9050919050565b600081905092915050565b50565b60006128e06000836128c5565b91506128eb826128d0565b600082019050919050565b6000612901826128d3565b9150819050919050565b7f5769746864726177616c206661696c6564000000000000000000000000000000600082015250565b60006129416011836126fe565b915061294c8261290b565b602082019050919050565b6000602082019050818103600083015261297081612934565b9050919050565b7f496e76616c696420746f6b656e20616464726573730000000000000000000000600082015250565b60006129ad6015836126fe565b91506129b882612977565b602082019050919050565b600060208201905081810360008301526129dc816129a0565b9050919050565b7f546f6b656e206e6f7420737570706f7274656400000000000000000000000000600082015250565b6000612a196013836126fe565b9150612a24826129e3565b602082019050919050565b60006020820190508181036000830152612a4881612a0c565b9050919050565b600081519050612a5e816123ef565b92915050565b600060208284031215612a7a57612a796123ea565b5b6000612a8884828501612a4f565b91505092915050565b7f496e76616c6964206f776e657220616464726573730000000000000000000000600082015250565b6000612ac76015836126fe565b9150612ad282612a91565b602082019050919050565b60006020820190508181036000830152612af681612aba565b9050919050565b7f496e76616c6964207370656e6465722061646472657373000000000000000000600082015250565b6000612b336017836126fe565b9150612b3e82612afd565b602082019050919050565b60006020820190508181036000830152612b6281612b26565b9050919050565b6000604082019050612b7e6000830185612509565b612b8b6020830184612509565b9392505050565b7f496e76616c69642076616c756500000000000000000000000000000000000000600082015250565b6000612bc8600d836126fe565b9150612bd382612b92565b602082019050919050565b60006020820190508181036000830152612bf781612bbb565b9050919050565b7f4572726f723a2022746f222061646472657373206d757374206e6f742062652060008201527f302e000000000000000000000000000000000000000000000000000000000000602082015250565b6000612c5a6022836126fe565b9150612c6582612bfe565b604082019050919050565b60006020820190508181036000830152612c8981612c4d565b9050919050565b7f4572726f723a2076616c7565206d75737420626520677265617465722074686160008201527f6e20302e00000000000000000000000000000000000000000000000000000000602082015250565b6000612cec6024836126fe565b9150612cf782612c90565b604082019050919050565b60006020820190508181036000830152612d1b81612cdf565b9050919050565b7f4572726f723a206e6f7420656e6f7567682062616c616e63652e000000000000600082015250565b6000612d58601a836126fe565b9150612d6382612d22565b602082019050919050565b60006020820190508181036000830152612d8781612d4b565b9050919050565b7f5472616e73666572206661696c65640000000000000000000000000000000000600082015250565b6000612dc4600f836126fe565b9150612dcf82612d8e565b602082019050919050565b60006020820190508181036000830152612df381612db7565b9050919050565b7f496e76616c696420726563697069656e74206164647265737300000000000000600082015250565b6000612e306019836126fe565b9150612e3b82612dfa565b602082019050919050565b60006020820190508181036000830152612e5f81612e23565b9050919050565b7f546f6b656e20616c726561647920737570706f72746564000000000000000000600082015250565b6000612e9c6017836126fe565b9150612ea782612e66565b602082019050919050565b60006020820190508181036000830152612ecb81612e8f565b9050919050565b6000604082019050612ee76000830185612509565b612ef460208301846123c0565b9392505050565b612f0481612448565b8114612f0f57600080fd5b50565b600081519050612f2181612efb565b92915050565b600060208284031215612f3d57612f3c6123ea565b5b6000612f4b84828501612f12565b91505092915050565b7f496e76616c69642073656e646572206164647265737300000000000000000000600082015250565b6000612f8a6016836126fe565b9150612f9582612f54565b602082019050919050565b60006020820190508181036000830152612fb981612f7d565b9050919050565b6000606082019050612fd56000830186612509565b612fe26020830185612509565b612fef60408301846123c0565b949350505050565b600081519050919050565b60005b83811015613020578082015181840152602081019050613005565b60008484015250505050565b600061303782612ff7565b61304181856128c5565b9350613051818560208601613002565b80840191505092915050565b6000613069828461302c565b91508190509291505056fea2646970667358221220ca8f1af744c870d9b51822e2839ee1f8f3916ff2ee1760575f583ed3de18bfe864736f6c63430008140033",
  "linkReferences": {},
  "deployedLinkReferences": {}
}