{
  "_format": "hh-sol-artifact-1",
  "contractName": "Relayer",
  "sourceName": "contracts/Relayer.sol",
  "abi": [
    {
      "inputs": [],
      "stateMutability": "nonpayable",
      "type": "constructor"
    },
    {
      "anonymous": false,
      "inputs": [
        {
          "indexed": true,
          "internalType": "address",
          "name": "sender",
          "type": "address"
        },
        {
          "indexed": false,
          "internalType": "uint256",
          "name": "value",
          "type": "uint256"
        }
      ],
      "name": "Received",
      "type": "event"
    },
    {
      "anonymous": false,
      "inputs": [
        {
          "indexed": false,
          "internalType": "uint256",
          "name": "id",
          "type": "uint256"
        },
        {
          "indexed": false,
          "internalType": "bytes32",
          "name": "root",
          "type": "bytes32"
        }
      ],
      "name": "RootAdded",
      "type": "event"
    },
    {
      "anonymous": false,
      "inputs": [
        {
          "indexed": true,
          "internalType": "address",
          "name": "from",
          "type": "address"
        },
        {
          "indexed": true,
          "internalType": "address",
          "name": "to",
          "type": "address"
        },
        {
          "indexed": false,
          "internalType": "uint256",
          "name": "amount",
          "type": "uint256"
        }
      ],
      "name": "Transfer",
      "type": "event"
    },
    {
      "inputs": [
        {
          "internalType": "bytes32",
          "name": "_root",
          "type": "bytes32"
        }
      ],
      "name": "addRoot",
      "outputs": [],
      "stateMutability": "nonpayable",
      "type": "function"
    },
    {
      "inputs": [
        {
          "internalType": "address",
          "name": "",
          "type": "address"
        }
      ],
      "name": "balanceOf",
      "outputs": [
        {
          "internalType": "uint256",
          "name": "",
          "type": "uint256"
        }
      ],
      "stateMutability": "view",
      "type": "function"
    },
    {
      "inputs": [],
      "name": "deposit",
      "outputs": [],
      "stateMutability": "payable",
      "type": "function"
    },
    {
      "inputs": [
        {
          "internalType": "uint256",
          "name": "id",
          "type": "uint256"
        }
      ],
      "name": "getRoot",
      "outputs": [
        {
          "internalType": "bytes32",
          "name": "",
          "type": "bytes32"
        }
      ],
      "stateMutability": "view",
      "type": "function"
    },
    {
      "inputs": [],
      "name": "owner",
      "outputs": [
        {
          "internalType": "address",
          "name": "",
          "type": "address"
        }
      ],
      "stateMutability": "view",
      "type": "function"
    },
    {
      "inputs": [],
      "name": "totalSupply",
      "outputs": [
        {
          "internalType": "uint256",
          "name": "",
          "type": "uint256"
        }
      ],
      "stateMutability": "view",
      "type": "function"
    },
    {
      "inputs": [
        {
          "internalType": "address payable",
          "name": "to",
          "type": "address"
        },
        {
          "internalType": "bytes32",
          "name": "_root",
          "type": "bytes32"
        },
        {
          "internalType": "uint256",
          "name": "_amount",
          "type": "uint256"
        }
      ],
      "name": "verifiedTransfer",
      "outputs": [
        {
          "internalType": "bool",
          "name": "success",
          "type": "bool"
        }
      ],
      "stateMutability": "nonpayable",
      "type": "function"
    },
    {
      "inputs": [
        {
          "internalType": "uint256",
          "name": "_shares",
          "type": "uint256"
        }
      ],
      "name": "withdraw",
      "outputs": [],
      "stateMutability": "nonpayable",
      "type": "function"
    },
    {
      "stateMutability": "payable",
      "type": "receive"
    }
  ],
  "bytecode": "0x6080604052600060025534801561001557600080fd5b50336000806101000a81548173ffffffffffffffffffffffffffffffffffffffff021916908373ffffffffffffffffffffffffffffffffffffffff1602179055506114f8806100656000396000f3fe60806040526004361061007f5760003560e01c80639b24b3b01161004e5780639b24b3b014610195578063b987faae146101d2578063d0e30db01461020f578063d59e646114610219576100d4565b806318160ddd146100d95780632e1a7d4d1461010457806370a082311461012d5780638da5cb5b1461016a576100d4565b366100d4573373ffffffffffffffffffffffffffffffffffffffff167f88a5966d370b9919b20f3e2c13ff65706f196a4e32cc2c12bf57088f88525874346040516100ca9190610b1a565b60405180910390a2005b600080fd5b3480156100e557600080fd5b506100ee610242565b6040516100fb9190610b1a565b60405180910390f35b34801561011057600080fd5b5061012b60048036038101906101269190610b66565b610248565b005b34801561013957600080fd5b50610154600480360381019061014f9190610bf1565b610369565b6040516101619190610b1a565b60405180910390f35b34801561017657600080fd5b5061017f610381565b60405161018c9190610c2d565b60405180910390f35b3480156101a157600080fd5b506101bc60048036038101906101b79190610b66565b6103a5565b6040516101c99190610c61565b60405180910390f35b3480156101de57600080fd5b506101f960048036038101906101f49190610ce6565b610412565b6040516102069190610d54565b60405180910390f35b61021761050d565b005b34801561022557600080fd5b50610240600480360381019061023b9190610d6f565b610582565b005b60035481565b6000600354476102589190610dfa565b9050600081836102689190610e2b565b9050804710156102ad576040517f08c379a00000000000000000000000000000000000000000000000000000000081526004016102a490610ef0565b60405180910390fd5b6102b73384610680565b60003373ffffffffffffffffffffffffffffffffffffffff16826040516102dd90610f41565b60006040518083038185875af1925050503d806000811461031a576040519150601f19603f3d011682016040523d82523d6000602084013e61031f565b606091505b5050905080610363576040517f08c379a000000000000000000000000000000000000000000000000000000000815260040161035a90610fa2565b60405180910390fd5b50505050565b60046020528060005260406000206000915090505481565b60008054906101000a900473ffffffffffffffffffffffffffffffffffffffff1681565b600080821180156103b857506002548211155b6103f7576040517f08c379a00000000000000000000000000000000000000000000000000000000081526004016103ee9061100e565b60405180910390fd5b60056000838152602001908152602001600020549050919050565b60008060009054906101000a900473ffffffffffffffffffffffffffffffffffffffff1673ffffffffffffffffffffffffffffffffffffffff163373ffffffffffffffffffffffffffffffffffffffff16146104a3576040517f08c379a000000000000000000000000000000000000000000000000000000000815260040161049a906110a0565b60405180910390fd5b600060025490506104b3816103a5565b84036104cb576104c385846106f3565b915050610506565b6040517f08c379a00000000000000000000000000000000000000000000000000000000081526004016104fd9061110c565b60405180910390fd5b9392505050565b600034905061051c3382610a8e565b6001339080600181540180825580915050600190039060005260206000200160009091909190916101000a81548173ffffffffffffffffffffffffffffffffffffffff021916908373ffffffffffffffffffffffffffffffffffffffff16021790555050565b60008054906101000a900473ffffffffffffffffffffffffffffffffffffffff1673ffffffffffffffffffffffffffffffffffffffff163373ffffffffffffffffffffffffffffffffffffffff1614610610576040517f08c379a0000000000000000000000000000000000000000000000000000000008152600401610607906110a0565b60405180910390fd5b600260008154809291906106239061112c565b919050555080600560006002548152602001908152602001600020819055507f47e13ec4cc37e31e3a4f25115640068ffbe4bee53b32f0953fa593388e69fc0f60025482604051610675929190611174565b60405180910390a150565b8060036000828254610692919061119d565b9250508190555080600460008473ffffffffffffffffffffffffffffffffffffffff1673ffffffffffffffffffffffffffffffffffffffff16815260200190815260200160002060008282546106e8919061119d565b925050819055505050565b60008073ffffffffffffffffffffffffffffffffffffffff168373ffffffffffffffffffffffffffffffffffffffff1603610763576040517f08c379a000000000000000000000000000000000000000000000000000000000815260040161075a90611243565b60405180910390fd5b600082116107a6576040517f08c379a000000000000000000000000000000000000000000000000000000000815260040161079d906112d5565b60405180910390fd5b814710156107e9576040517f08c379a00000000000000000000000000000000000000000000000000000000081526004016107e090611341565b60405180910390fd5b600060018054905011610831576040517f08c379a0000000000000000000000000000000000000000000000000000000008152600401610828906113ad565b60405180910390fd5b6000600180549050905060005b818110156109505760006001828154811061085c5761085b6113cd565b5b9060005260206000200160009054906101000a900473ffffffffffffffffffffffffffffffffffffffff1690506000600354600460008473ffffffffffffffffffffffffffffffffffffffff1673ffffffffffffffffffffffffffffffffffffffff16815260200190815260200160002054876108d99190610e2b565b6108e39190610dfa565b905080600460008473ffffffffffffffffffffffffffffffffffffffff1673ffffffffffffffffffffffffffffffffffffffff1681526020019081526020016000206000828254610934919061119d565b92505081905550505080806109489061112c565b91505061083e565b5060008473ffffffffffffffffffffffffffffffffffffffff168460405161097790610f41565b60006040518083038185875af1925050503d80600081146109b4576040519150601f19603f3d011682016040523d82523d6000602084013e6109b9565b606091505b50509050806109fd576040517f08c379a00000000000000000000000000000000000000000000000000000000081526004016109f49061146e565b60405180910390fd5b8473ffffffffffffffffffffffffffffffffffffffff1660008054906101000a900473ffffffffffffffffffffffffffffffffffffffff1673ffffffffffffffffffffffffffffffffffffffff167fddf252ad1be2c89b69c2b068fc378daa952ba7f163c4a11628f55a4df523b3ef86604051610a7a9190610b1a565b60405180910390a360019250505092915050565b8060036000828254610aa0919061148e565b9250508190555080600460008473ffffffffffffffffffffffffffffffffffffffff1673ffffffffffffffffffffffffffffffffffffffff1681526020019081526020016000206000828254610af6919061148e565b925050819055505050565b6000819050919050565b610b1481610b01565b82525050565b6000602082019050610b2f6000830184610b0b565b92915050565b600080fd5b610b4381610b01565b8114610b4e57600080fd5b50565b600081359050610b6081610b3a565b92915050565b600060208284031215610b7c57610b7b610b35565b5b6000610b8a84828501610b51565b91505092915050565b600073ffffffffffffffffffffffffffffffffffffffff82169050919050565b6000610bbe82610b93565b9050919050565b610bce81610bb3565b8114610bd957600080fd5b50565b600081359050610beb81610bc5565b92915050565b600060208284031215610c0757610c06610b35565b5b6000610c1584828501610bdc565b91505092915050565b610c2781610bb3565b82525050565b6000602082019050610c426000830184610c1e565b92915050565b6000819050919050565b610c5b81610c48565b82525050565b6000602082019050610c766000830184610c52565b92915050565b6000610c8782610b93565b9050919050565b610c9781610c7c565b8114610ca257600080fd5b50565b600081359050610cb481610c8e565b92915050565b610cc381610c48565b8114610cce57600080fd5b50565b600081359050610ce081610cba565b92915050565b600080600060608486031215610cff57610cfe610b35565b5b6000610d0d86828701610ca5565b9350506020610d1e86828701610cd1565b9250506040610d2f86828701610b51565b9150509250925092565b60008115159050919050565b610d4e81610d39565b82525050565b6000602082019050610d696000830184610d45565b92915050565b600060208284031215610d8557610d84610b35565b5b6000610d9384828501610cd1565b91505092915050565b7f4e487b7100000000000000000000000000000000000000000000000000000000600052601260045260246000fd5b7f4e487b7100000000000000000000000000000000000000000000000000000000600052601160045260246000fd5b6000610e0582610b01565b9150610e1083610b01565b925082610e2057610e1f610d9c565b5b828204905092915050565b6000610e3682610b01565b9150610e4183610b01565b9250828202610e4f81610b01565b91508282048414831517610e6657610e65610dcb565b5b5092915050565b600082825260208201905092915050565b7f4e6f7420656e6f7567682062616c616e636520696e2074686520636f6e74726160008201527f6374000000000000000000000000000000000000000000000000000000000000602082015250565b6000610eda602283610e6d565b9150610ee582610e7e565b604082019050919050565b60006020820190508181036000830152610f0981610ecd565b9050919050565b600081905092915050565b50565b6000610f2b600083610f10565b9150610f3682610f1b565b600082019050919050565b6000610f4c82610f1e565b9150819050919050565b7f455448207472616e73666572206661696c656400000000000000000000000000600082015250565b6000610f8c601383610e6d565b9150610f9782610f56565b602082019050919050565b60006020820190508181036000830152610fbb81610f7f565b9050919050565b7f496e76616c696420726f6f742049440000000000000000000000000000000000600082015250565b6000610ff8600f83610e6d565b915061100382610fc2565b602082019050919050565b6000602082019050818103600083015261102781610feb565b9050919050565b7f4f6e6c792074686520636f6e7472616374206f776e65722063616e2063616c6c60008201527f20746869732066756e6374696f6e000000000000000000000000000000000000602082015250565b600061108a602e83610e6d565b91506110958261102e565b604082019050919050565b600060208201905081810360008301526110b98161107d565b9050919050565b7f4572726f723a20496e76616c6964207369676e6572732e000000000000000000600082015250565b60006110f6601783610e6d565b9150611101826110c0565b602082019050919050565b60006020820190508181036000830152611125816110e9565b9050919050565b600061113782610b01565b91507fffffffffffffffffffffffffffffffffffffffffffffffffffffffffffffffff820361116957611168610dcb565b5b600182019050919050565b60006040820190506111896000830185610b0b565b6111966020830184610c52565b9392505050565b60006111a882610b01565b91506111b383610b01565b92508282039050818111156111cb576111ca610dcb565b5b92915050565b7f4572726f723a2022746f222061646472657373206d757374206e6f742062652060008201527f302e000000000000000000000000000000000000000000000000000000000000602082015250565b600061122d602283610e6d565b9150611238826111d1565b604082019050919050565b6000602082019050818103600083015261125c81611220565b9050919050565b7f4572726f723a2076616c7565206d75737420626520677265617465722074686160008201527f6e20302e00000000000000000000000000000000000000000000000000000000602082015250565b60006112bf602483610e6d565b91506112ca82611263565b604082019050919050565b600060208201905081810360008301526112ee816112b2565b9050919050565b7f4572726f723a206e6f7420656e6f7567682062616c616e63652e000000000000600082015250565b600061132b601a83610e6d565b9150611336826112f5565b602082019050919050565b6000602082019050818103600083015261135a8161131e565b9050919050565b7f4e6f206465706f7369746f727320746f207472616e736665722045544820746f600082015250565b6000611397602083610e6d565b91506113a282611361565b602082019050919050565b600060208201905081810360008301526113c68161138a565b9050919050565b7f4e487b7100000000000000000000000000000000000000000000000000000000600052603260045260246000fd5b7f5472616e7366657220746f2074686520726563697069656e742061646472657360008201527f73206661696c6564000000000000000000000000000000000000000000000000602082015250565b6000611458602883610e6d565b9150611463826113fc565b604082019050919050565b600060208201905081810360008301526114878161144b565b9050919050565b600061149982610b01565b91506114a483610b01565b92508282019050808211156114bc576114bb610dcb565b5b9291505056fea26469706673582212202b69ebab2d5dd466cf9b915784b020f1f0dc4a9ed689319906fd98da88c3047764736f6c63430008140033",
  "linkReferences": {},
  "deployedLinkReferences": {}
}